{"abi":[{"type":"function","name":"main","inputs":[{"name":"unverifiedEmail","type":"tuple","internalType":"struct UnverifiedEmail","components":[{"name":"email","type":"string","internalType":"string"},{"name":"dnsRecord","type":"tuple","internalType":"struct DnsRecord","components":[{"name":"name","type":"string","internalType":"string"},{"name":"recordType","type":"uint8","internalType":"uint8"},{"name":"data","type":"string","internalType":"string"},{"name":"ttl","type":"uint64","internalType":"uint64"}]},{"name":"verificationData","type":"tuple","internalType":"struct VerificationData","components":[{"name":"validUntil","type":"uint64","internalType":"uint64"},{"name":"signature","type":"bytes","internalType":"bytes"},{"name":"pubKey","type":"bytes","internalType":"bytes"}]}]},{"name":"expectedDomain","type":"string","internalType":"string"}],"outputs":[{"name":"","type":"tuple","internalType":"struct Proof","components":[{"name":"seal","type":"tuple","internalType":"struct Seal","components":[{"name":"verifierSelector","type":"bytes4","internalType":"bytes4"},{"name":"seal","type":"bytes32[8]","internalType":"bytes32[8]"},{"name":"mode","type":"uint8","internalType":"enum ProofMode"}]},{"name":"callGuestId","type":"bytes32","internalType":"bytes32"},{"name":"length","type":"uint256","internalType":"uint256"},{"name":"callAssumptions","type":"tuple","internalType":"struct CallAssumptions","components":[{"name":"proverContractAddress","type":"address","internalType":"address"},{"name":"functionSelector","type":"bytes4","internalType":"bytes4"},{"name":"settleChainId","type":"uint256","internalType":"uint256"},{"name":"settleBlockNumber","type":"uint256","internalType":"uint256"},{"name":"settleBlockHash","type":"bytes32","internalType":"bytes32"}]}]},{"name":"","type":"bytes32","internalType":"bytes32"}],"stateMutability":"view"},{"type":"function","name":"proof","inputs":[],"outputs":[{"name":"","type":"tuple","internalType":"struct Proof","components":[{"name":"seal","type":"tuple","internalType":"struct Seal","components":[{"name":"verifierSelector","type":"bytes4","internalType":"bytes4"},{"name":"seal","type":"bytes32[8]","internalType":"bytes32[8]"},{"name":"mode","type":"uint8","internalType":"enum ProofMode"}]},{"name":"callGuestId","type":"bytes32","internalType":"bytes32"},{"name":"length","type":"uint256","internalType":"uint256"},{"name":"callAssumptions","type":"tuple","internalType":"struct CallAssumptions","components":[{"name":"proverContractAddress","type":"address","internalType":"address"},{"name":"functionSelector","type":"bytes4","internalType":"bytes4"},{"name":"settleChainId","type":"uint256","internalType":"uint256"},{"name":"settleBlockNumber","type":"uint256","internalType":"uint256"},{"name":"settleBlockHash","type":"bytes32","internalType":"bytes32"}]}]}],"stateMutability":"pure"},{"type":"function","name":"setBlock","inputs":[{"name":"blockNo","type":"uint256","internalType":"uint256"}],"outputs":[],"stateMutability":"nonpayable"},{"type":"function","name":"setChain","inputs":[{"name":"chainId","type":"uint256","internalType":"uint256"},{"name":"blockNo","type":"uint256","internalType":"uint256"}],"outputs":[],"stateMutability":"nonpayable"},{"type":"error","name":"FailedInnerCall","inputs":[]}],"bytecode":{"object":"0x6080604052348015600e575f5ffd5b506112968061001c5f395ff3fe608060405234801561000f575f5ffd5b506004361061004a575f3560e01c80634c43774b1461004e57806387cea3ae14610078578063faf924cf1461008d578063ffbc5638146100a2575b5f5ffd5b61006161005c366004610b1a565b6100b5565b60405161006f929190610c47565b60405180910390f35b61008b610086366004610c64565b6101d2565b005b610095610294565b60405161006f9190610c7b565b61008b6100b0366004610c8a565b6102a9565b6100bd610965565b5f806100d06100cb86610d3f565b610376565b90505f6100f760405180606001604052806027815260200161123a602791398351906106fb565b90505f858051906020012090505f8260018151811061011857610118610e4e565b602002602001015180519060200120905082516002146101765760405162461bcd60e51b815260206004820152601460248201527334b73b30b634b21032b6b0b4b6103237b6b0b4b760611b60448201526064015b60405180910390fd5b8181146101bd5760405162461bcd60e51b81526020600482015260156024820152740c8dedac2d2dc40c8decae640dcdee840dac2e8c6d605b1b604482015260640161016d565b6101c5610294565b9890975095505050505050565b6040516343e751d760e11b8152600481018290527376dc9aa45aa006a0f63942d8f9f21bd4537972a3906387cea3ae906024016020604051808303815f875af1158015610221573d5f5f3e3d5ffd5b505050506040513d601f19601f820116820180604052508101906102459190610e62565b6102915760405162461bcd60e51b815260206004820152601b60248201527f4661696c6564206368656174636f646520696e766f636174696f6e0000000000604482015260640161016d565b50565b61029c610965565b6102a46107d2565b905090565b60405160016208753960e31b0319815260048101839052602481018290527376dc9aa45aa006a0f63942d8f9f21bd4537972a39063ffbc5638906044016020604051808303815f875af1158015610302573d5f5f3e3d5ffd5b505050506040513d601f19601f820116820180604052508101906103269190610e62565b6103725760405162461bcd60e51b815260206004820152601b60248201527f4661696c6564206368656174636f646520696e766f636174696f6e0000000000604482015260640161016d565b5050565b6103a16040518060800160405280606081526020016060815260200160608152602001606081525090565b4282604001515f01516001600160401b03161161040c5760405162461bcd60e51b8152602060048201526024808201527f456d61696c50726f6f663a206578706972656420444e532076657269666963616044820152633a34b7b760e11b606482015260840161016d565b6104146107e7565b1561049c57604080830151015180516020909101207fc16646301c7615357b8f8ee125956b0e5fbf972fa2a0c26feb1f1ae75d04103f146104975760405162461bcd60e51b815260206004820152601e60248201527f4e6f7420612076616c69642056444e532068617264636f646564206b65790000604482015260640161016d565b61063b565b6104a46107fe565b156105725760408083015181015190516381e4c9a360e01b815273565dca92902ea0ca597b5e62df0b47886b6b7d4d916381e4c9a3916104e79190600401610eb6565b602060405180830381865afa158015610502573d5f5f3e3d5ffd5b505050506040513d601f19601f820116820180604052508101906105269190610e62565b6104975760405162461bcd60e51b815260206004820152601b60248201527f4e6f7420612076616c69642056444e53207075626c6963206b65790000000000604482015260640161016d565b60408083015181015190516381e4c9a360e01b815273c4e4dc291a5c4debe9ff5a3372f3fdd2e42bac86916381e4c9a3916105b09190600401610eb6565b602060405180830381865afa1580156105cb573d5f5f3e3d5ffd5b505050506040513d601f19601f820116820180604052508101906105ef9190610e62565b61063b5760405162461bcd60e51b815260206004820152601b60248201527f4e6f7420612076616c69642056444e53207075626c6963206b65790000000000604482015260640161016d565b5f8061065c73f4e4fdca9d5d55e64525e314391996a15f7ec6006001610ec8565b6001600160a01b0316846040516020016106769190610f33565b60408051601f198184030181529082905261069091610fd7565b5f60405180830381855afa9150503d805f81146106c8576040519150601f19603f3d011682016040523d82523d5f602084013e6106cd565b606091505b50915091506106dc8282610864565b505f818060200190518101906106f2919061103a565b95945050505050565b60605f8061071e73f4e4fdca9d5d55e64525e314391996a15f7ec6006011610ec8565b6001600160a01b031660405180604001604052808781526020018681525060405160200161074c9190611122565b60408051601f198184030181529082905261076691610fd7565b5f60405180830381855afa9150503d805f811461079e576040519150601f19603f3d011682016040523d82523d5f602084013e6107a3565b606091505b50915091506107b28282610864565b50808060200190518101906107c79190611170565b925050505b92915050565b6107da610965565b6107e2610965565b919050565b5f6107f0610880565b806102a457506102a4610896565b5f466001148061080e575046600a145b806108195750466089145b80610825575046610144145b806108315750466101e0145b8061083d575046612105145b8061084957504661a4b1145b8061085557504661a4ba145b806102a457505061e708461490565b606082610879576108748261093c565b6107cc565b50806107cc565b5f46617a6914806102a457505062049919461490565b5f80806108b873f4e4fdca9d5d55e64525e314391996a15f7ec600601e610ec8565b6001600160a01b03166040515f60405180830381855afa9150503d805f81146108fc576040519150601f19603f3d011682016040523d82523d5f602084013e610901565b606091505b509150915081158061091257508051155b1561091f575f9250505090565b5f818060200190518101906109349190610e62565b949350505050565b80511561094c5780518082602001fd5b604051630a12f52160e11b815260040160405180910390fd5b60405180608001604052806109786109ce565b81526020015f81526020015f81526020016109c96040518060a001604052805f6001600160a01b031681526020015f6001600160e01b03191681526020015f81526020015f81526020015f81525090565b905290565b60408051606081019091525f8152602081016109e86109f3565b81526020015f905290565b6040518061010001604052806008906020820280368337509192915050565b634e487b7160e01b5f52604160045260245ffd5b604051606081016001600160401b0381118282101715610a4857610a48610a12565b60405290565b604051608081016001600160401b0381118282101715610a4857610a48610a12565b604051601f8201601f191681016001600160401b0381118282101715610a9857610a98610a12565b604052919050565b5f6001600160401b03821115610ab857610ab8610a12565b50601f01601f191660200190565b5f82601f830112610ad5575f5ffd5b8135602083015f610aed610ae884610aa0565b610a70565b9050828152858383011115610b00575f5ffd5b828260208301375f92810160200192909252509392505050565b5f5f60408385031215610b2b575f5ffd5b82356001600160401b03811115610b40575f5ffd5b830160608186031215610b51575f5ffd5b915060208301356001600160401b03811115610b6b575f5ffd5b610b7785828601610ac6565b9150509250929050565b805180516001600160e01b03191683526020808201519084015f5b6008811015610bbb578251825260209283019290910190600101610b9c565b5050506040015160028110610bde57634e487b7160e01b5f52602160045260245ffd5b61012083015260208181015161014084015260408083015161016085015260609283015180516001600160a01b0316610180860152918201516001600160e01b0319166101a08501528101516101c0840152908101516101e08301526080015161020090910152565b6102408101610c568285610b81565b826102208301529392505050565b5f60208284031215610c74575f5ffd5b5035919050565b61022081016107cc8284610b81565b5f5f60408385031215610c9b575f5ffd5b50508035926020909101359150565b80356001600160401b03811681146107e2575f5ffd5b5f60608284031215610cd0575f5ffd5b610cd8610a26565b9050610ce382610caa565b815260208201356001600160401b03811115610cfd575f5ffd5b610d0984828501610ac6565b60208301525060408201356001600160401b03811115610d27575f5ffd5b610d3384828501610ac6565b60408301525092915050565b5f60608236031215610d4f575f5ffd5b610d57610a26565b82356001600160401b03811115610d6c575f5ffd5b610d7836828601610ac6565b82525060208301356001600160401b03811115610d93575f5ffd5b83016080368290031215610da5575f5ffd5b610dad610a4e565b81356001600160401b03811115610dc2575f5ffd5b610dce36828501610ac6565b825250602082013560ff81168114610de4575f5ffd5b602082015260408201356001600160401b03811115610e01575f5ffd5b610e0d36828501610ac6565b604083015250610e1f60608301610caa565b606082015260208301525060408301356001600160401b03811115610e42575f5ffd5b610d3336828601610cc0565b634e487b7160e01b5f52603260045260245ffd5b5f60208284031215610e72575f5ffd5b81518015158114610e81575f5ffd5b9392505050565b5f81518084528060208401602086015e5f602082860101526020601f19601f83011685010191505092915050565b602081525f610e816020830184610e88565b6001600160a01b0381811683821601908111156107cc57634e487b7160e01b5f52601160045260245ffd5b6001600160401b0381511682525f602082015160606020850152610f1a6060850182610e88565b9050604083015184820360408601526107c78282610e88565b602081525f825160606020840152610f4e6080840182610e88565b90506020840151601f19848303016040850152805160808352610f746080840182610e88565b905060ff602083015116602084015260408201518382036040850152610f9a8282610e88565b9150506001600160401b03606083015116606084015260408601519250601f19858203016060860152610fcd8184610ef3565b9695505050505050565b5f82518060208501845e5f920191825250919050565b5f82601f830112610ffc575f5ffd5b815161100a610ae882610aa0565b81815284602083860101111561101e575f5ffd5b8160208501602083015e5f918101602001919091529392505050565b5f6020828403121561104a575f5ffd5b81516001600160401b0381111561105f575f5ffd5b820160808185031215611070575f5ffd5b611078610a4e565b81516001600160401b0381111561108d575f5ffd5b61109986828501610fed565b82525060208201516001600160401b038111156110b4575f5ffd5b6110c086828501610fed565b60208301525060408201516001600160401b038111156110de575f5ffd5b6110ea86828501610fed565b60408301525060608201516001600160401b03811115611108575f5ffd5b61111486828501610fed565b606083015250949350505050565b60208082525f906060830190830184835b600281101561116557601f19868503018352611150848351610e88565b93506020928301929190910190600101611133565b509195945050505050565b5f60208284031215611180575f5ffd5b81516001600160401b03811115611195575f5ffd5b8201601f810184136111a5575f5ffd5b80516001600160401b038111156111be576111be610a12565b8060051b6111ce60208201610a70565b918252602081840181019290810190878411156111e9575f5ffd5b6020850192505b8383101561122e5782516001600160401b0381111561120d575f5ffd5b61121c89602083890101610fed565b835250602092830192909101906111f0565b97965050505050505056fe5e5b5c772e2d5d2b40285b612d7a412d5a5c642e2d5d2b5c2e5b612d7a412d5a5d7b322c7d2924a264697066735822122092007793092de2469d158ab7087252934f7dbab9a39a6c737eb986e755dd058664736f6c634300081c0033","linkReferences":{}},"methodIdentifiers":{"main((string,(string,uint8,string,uint64),(uint64,bytes,bytes)),string)":"4c43774b","proof()":"faf924cf","setBlock(uint256)":"87cea3ae","setChain(uint256,uint256)":"ffbc5638"},"id":65}