{"abi":[{"type":"constructor","inputs":[{"name":"_prover","type":"address","internalType":"address"}],"stateMutability":"nonpayable"},{"type":"function","name":"_setTestVerifier","inputs":[{"name":"newVerifier","type":"address","internalType":"contract IProofVerifier"}],"outputs":[],"stateMutability":"nonpayable"},{"type":"function","name":"prover","inputs":[],"outputs":[{"name":"","type":"address","internalType":"address"}],"stateMutability":"view"},{"type":"function","name":"verifier","inputs":[],"outputs":[{"name":"","type":"address","internalType":"contract IProofVerifier"}],"stateMutability":"view"},{"type":"function","name":"verify","inputs":[{"name":"","type":"tuple","internalType":"struct Proof","components":[{"name":"seal","type":"tuple","internalType":"struct Seal","components":[{"name":"verifierSelector","type":"bytes4","internalType":"bytes4"},{"name":"seal","type":"bytes32[8]","internalType":"bytes32[8]"},{"name":"mode","type":"uint8","internalType":"enum ProofMode"}]},{"name":"callGuestId","type":"bytes32","internalType":"bytes32"},{"name":"length","type":"uint256","internalType":"uint256"},{"name":"callAssumptions","type":"tuple","internalType":"struct CallAssumptions","components":[{"name":"proverContractAddress","type":"address","internalType":"address"},{"name":"functionSelector","type":"bytes4","internalType":"bytes4"},{"name":"settleChainId","type":"uint256","internalType":"uint256"},{"name":"settleBlockNumber","type":"uint256","internalType":"uint256"},{"name":"settleBlockHash","type":"bytes32","internalType":"bytes32"}]}]},{"name":"_domainHash","type":"bytes32","internalType":"bytes32"}],"outputs":[{"name":"","type":"bytes32","internalType":"bytes32"},{"name":"","type":"bool","internalType":"bool"}],"stateMutability":"view"},{"type":"error","name":"InvalidChainId","inputs":[]}],"bytecode":{"object":"0x60a060405234801561000f575f5ffd5b5060405161371038038061371083398101604081905261002e916103ba565b61003661006d565b5f80546001600160a01b039283166001600160a01b0319918216179091553360805260018054939092169216919091179055610431565b5f610076610208565b1561016f575f303060405161008a906103a0565b6001600160a01b03928316815291166020820152604001604051809103905ff0801580156100ba573d5f5f3e3d5ffd5b506040516384cf84e160e01b81527fdcb00648ecc90d8bfe92aa8d51061beb0bcb110d274fc4a517e526574233d36b60048201529091506001600160a01b038216906384cf84e1906024015f604051808303815f87803b15801561011c575f5ffd5b505af115801561012e573d5f5f3e3d5ffd5b505050508060405161013f906103ad565b6001600160a01b039091168152602001604051809103905ff080158015610168573d5f5f3e3d5ffd5b5091505090565b610177610224565b15610199575f735553cf6ce25e3f80fad2866f6230346159ecd89c5b92915050565b6101a161028a565b156101ef575f739e30dc3e49c4d47f982902710616dcc4b6ff7bf5737e231cfc3e3b549633d5ad61c30f07dd4d408ad3738972b6ff413ac04e61e19f07d7f3bd980d0cc3215b949350505050565b604051633d23e4d160e11b815260040160405180910390fd5b5f6102116102ec565b8061021f575061021f610302565b905090565b5f4660011480610234575046600a145b8061023f5750466089145b8061024b575046610144145b806102575750466101e0145b80610263575046612105145b8061026f57504661a4b1145b8061027b57504661a4ba145b8061021f57505061e708461490565b5f4662aa36a7148061029d57504661012c145b806102a95750466112c1145b806102b557504661e705145b806102c257504662013882145b806102cf57504662014a34145b806102dc57504662066eee145b8061021f57505062aa37dc461490565b5f46617a69148061021f57505062049919461490565b5f808061032473f4e4fdca9d5d55e64525e314391996a15f7ec600601e6103e7565b6001600160a01b03166040515f60405180830381855afa9150503d805f8114610368576040519150601f19603f3d011682016040523d82523d5f602084013e61036d565b606091505b509150915081158061037e57508051155b1561038b575f9250505090565b5f818060200190518101906101e79190610412565b61111b806111b483390190565b611441806122cf83390190565b5f602082840312156103ca575f5ffd5b81516001600160a01b03811681146103e0575f5ffd5b9392505050565b6001600160a01b03818116838216019081111561019357634e487b7160e01b5f52601160045260245ffd5b5f60208284031215610422575f5ffd5b815180151581146103e0575f5ffd5b608051610d6c6104485f395f60d80152610d6c5ff3fe608060405234801561000f575f5ffd5b506004361061004a575f3560e01c80632b7ac3f31461004e57806332a8f30f1461007d5780639b8b30c814610090578063b66327c9146100a5575b5f5ffd5b5f54610060906001600160a01b031681565b6040516001600160a01b0390911681526020015b60405180910390f35b600154610060906001600160a01b031681565b6100a361009e3660046108b5565b6100cd565b005b6100b86100b33660046108d7565b6102ce565b60408051928352901515602083015201610074565b336001600160a01b037f000000000000000000000000000000000000000000000000000000000000000016146101545760405162461bcd60e51b815260206004820152602160248201527f4f6e6c79206465706c6f7965722063616e206368616e676520766572696669656044820152603960f91b60648201526084015b60405180910390fd5b61015c6102fd565b8061016a575061016a610319565b6101dc5760405162461bcd60e51b815260206004820152603760248201527f4368616e67696e6720766572696669657273206973206f6e6c7920616c6c6f7760448201527f6564206f6e206465766e6574206f7220746573746e6574000000000000000000606482015260840161014b565b5f6001600160a01b0316816001600160a01b0316633fd66f226040518163ffffffff1660e01b8152600401602060405180830381865afa158015610222573d5f5f3e3d5ffd5b505050506040513d601f19601f820116820180604052508101906102469190610908565b6001600160a01b0316036102ad5760405162461bcd60e51b815260206004820152602860248201527f56657269666965722773207265706f7369746f72792061646472657373206973604482015267081b9bdd081cd95d60c21b606482015260840161014b565b5f80546001600160a01b0319166001600160a01b0392909216919091179055565b6001545f9081906001600160a01b0316634c43774b60e01b6102f0828261037b565b5092946001945092505050565b5f6103066103f0565b806103145750610314610406565b905090565b5f4662aa36a7148061032c57504661012c145b806103385750466112c1145b8061034457504661e705145b8061035157504662013882145b8061035e57504662014a34145b8061036b57504662066eee145b8061031457505062aa37dc461490565b5f5f6103856104ac565b5f5460405163c4fa74e560e01b81529294509092506001600160a01b03169063c4fa74e5906103be9085908590899089906004016109e9565b5f6040518083038186803b1580156103d4575f5ffd5b505afa1580156103e6573d5f5f3e3d5ffd5b5050505050505050565b5f46617a69148061031457505062049919461490565b5f808061042873f4e4fdca9d5d55e64525e314391996a15f7ec600601e610a3d565b6001600160a01b03166040515f60405180830381855afa9150503d805f811461046c576040519150601f19603f3d011682016040523d82523d5f602084013e610471565b606091505b509150915081158061048257508051155b1561048f575f9250505090565b5f818060200190518101906104a49190610a62565b949350505050565b6104b46107f1565b5f806104c33660048184610a81565b8101906104d09190610bcd565b90505f602080806104e18180610ca2565b6104eb9190610ca2565b6104f59190610ca2565b6104ff9190610ca2565b6020808061050f61010082610ca2565b6105199190610ca2565b6105239190610ca2565b61052d9190610ca2565b610538906004610ca2565b6105429190610ca2565b90505f602080806105538180610ca2565b61055d9190610ca2565b6105679190610ca2565b6105719190610ca2565b6020808061057f8180610ca2565b6105899190610ca2565b6105939190610ca2565b61059d9190610ca2565b602080806105ad61010082610ca2565b6105b79190610ca2565b6105c19190610ca2565b6105cb9190610ca2565b6105d59190610ca2565b84604001516105e49190610cb5565b6105ee9190610cb5565b90505f6105fb8284610ca2565b90505f80366020808061061061010082610ca2565b61061a9190610ca2565b6106249190610ca2565b61062e9190610ca2565b610639906004610ca2565b90602080806106488180610ca2565b6106529190610ca2565b61065c9190610ca2565b6106669190610ca2565b6020808061067661010082610ca2565b6106809190610ca2565b61068a9190610ca2565b6106949190610ca2565b61069f906004610ca2565b6106a99190610ca2565b926106b693929190610a81565b8080601f0160208091040260200160405190810160405280939291908181526020018383808284375f9201829052509394506106fa92508591508790503684610a81565b8080601f0160208091040260200160405190810160405280939291908181526020018383808284375f92018290525093945085925061073b91506107dc9050565b60405160200161074b9190610cc8565b60408051601f198184030181529082905261076b92918590602001610cee565b60405160208183030381529060405290505f60028260405161078d9190610d14565b602060405180830381855afa1580156107a8573d5f5f3e3d5ffd5b5050506040513d601f19601f820116820180604052508101906107cb9190610d1f565b979a97995096975050505050505050565b6107e46107f1565b6107ec6107f1565b919050565b604051806080016040528061080461085a565b81526020015f81526020015f81526020016108556040518060a001604052805f6001600160a01b031681526020015f6001600160e01b03191681526020015f81526020015f81526020015f81525090565b905290565b60408051606081019091525f81526020810161087461087f565b81526020015f905290565b6040518061010001604052806008906020820280368337509192915050565b6001600160a01b03811681146108b2575f5ffd5b50565b5f602082840312156108c5575f5ffd5b81356108d08161089e565b9392505050565b5f5f8284036102408112156108ea575f5ffd5b6102208112156108f8575f5ffd5b5091936102208501359350915050565b5f60208284031215610918575f5ffd5b81516108d08161089e565b805180516001600160e01b03191683526020808201519084015f5b600881101561095d57825182526020928301929091019060010161093e565b505050604001516002811061098057634e487b7160e01b5f52602160045260245ffd5b61012083015260208181015161014084015260408083015161016085015260609283015180516001600160a01b0316610180860152918201516001600160e01b0319166101a08501528101516101c0840152908101516101e08301526080015161020090910152565b61028081016109f88287610923565b6102208201949094526001600160a01b03929092166102408301526001600160e01b03191661026090910152919050565b634e487b7160e01b5f52601160045260245ffd5b6001600160a01b038181168382160190811115610a5c57610a5c610a29565b92915050565b5f60208284031215610a72575f5ffd5b815180151581146108d0575f5ffd5b5f5f85851115610a8f575f5ffd5b83861115610a9b575f5ffd5b5050820193919092039150565b634e487b7160e01b5f52604160045260245ffd5b6040516080810167ffffffffffffffff81118282101715610adf57610adf610aa8565b60405290565b6040516060810167ffffffffffffffff81118282101715610adf57610adf610aa8565b604051610100810167ffffffffffffffff81118282101715610adf57610adf610aa8565b80356001600160e01b0319811681146107ec575f5ffd5b8035600281106107ec575f5ffd5b5f60a08284031215610b61575f5ffd5b60405160a0810167ffffffffffffffff81118282101715610b8457610b84610aa8565b6040529050808235610b958161089e565b8152610ba360208401610b2c565b60208201526040838101359082015260608084013590820152608092830135920191909152919050565b5f81830361022081128015610be0575f5ffd5b50610be9610abc565b610140821215610bf7575f5ffd5b610bff610ae5565b9150610c0a84610b2c565b825284603f850112610c1a575f5ffd5b610c22610b08565b80610120860187811115610c34575f5ffd5b602087015b81811015610c51578035845260209384019301610c39565b50816020860152610c6181610b43565b6040868101919091529484525050506101408401356020820152610160840135918101829052610c95856101808601610b51565b6060820152949350505050565b80820180821115610a5c57610a5c610a29565b81810381811115610a5c57610a5c610a29565b6102208101610a5c8284610923565b5f81518060208401855e5f93019283525090919050565b5f610d0b610d05610cff8488610cd7565b86610cd7565b84610cd7565b95945050505050565b5f6108d08284610cd7565b5f60208284031215610d2f575f5ffd5b505191905056fea26469706673582212204c51d6eb893b027c79d38235223d93d55b125152b7f9eb6416f190f39e05668b64736f6c634300081c0033608060405234801561000f575f5ffd5b5060405161111b38038061111b83398101604081905261002e916101b7565b6100385f8361006b565b506100637fb19546dff01e856fb3f010c267a7b1c60363cf8a4664e21cc89c26224620214e8261006b565b5050506101e8565b5f8061007784846100a1565b90508015610098575f8481526001602052604090206100969084610148565b505b90505b92915050565b5f828152602081815260408083206001600160a01b038516845290915281205460ff16610141575f838152602081815260408083206001600160a01b03861684529091529020805460ff191660011790556100f93390565b6001600160a01b0316826001600160a01b0316847f2f8788117e7eff1d82e926ec794901d17c78024a50270940304540a733656f0d60405160405180910390a450600161009b565b505f61009b565b5f610098836001600160a01b0384165f81815260018301602052604081205461014157508154600181810184555f84815260208082209093018490558454848252828601909352604090209190915561009b565b80516001600160a01b03811681146101b2575f5ffd5b919050565b5f5f604083850312156101c8575f5ffd5b6101d18361019c565b91506101df6020840161019c565b90509250929050565b610f26806101f55f395ff3fe608060405234801561000f575f5ffd5b5060043610610132575f3560e01c8063853b5d19116100b4578063c5df91b511610079578063c5df91b5146102d0578063ca0d5358146102e3578063ca15c873146102f6578063d547741f14610309578063e58378bb1461031c578063f2fde38b14610330575f5ffd5b8063853b5d19146102655780639010d07c1461027857806391d14854146102a3578063a217fddf146102b6578063ada8f919146102bd575f5ffd5b80632f2ff15d116100fa5780632f2ff15d146101ef57806336568abe14610202578063755e936f1461021557806381e4c9a31461022857806384cf84e114610252575f5ffd5b806301ffc9a7146101365780631af6c4311461015e578063248a9ca3146101805780632505a3bd146101b05780632ad82eea146101da575b5f5ffd5b610149610144366004610cb5565b610343565b60405190151581526020015b60405180910390f35b61014961016c366004610cdc565b5f9081526003602052604090205460ff1690565b6101a261018e366004610cdc565b5f9081526020819052604090206001015490565b604051908152602001610155565b6101496101be366004610d7e565b80516020918201205f9081526004909152604090205460ff1690565b6101ed6101e8366004610d7e565b61036d565b005b6101ed6101fd366004610de6565b610441565b6101ed610210366004610de6565b61046b565b6101ed610223366004610d7e565b6104a3565b610149610236366004610d7e565b80516020918201205f9081526002909152604090205460ff1690565b6101ed610260366004610cdc565b610566565b6101ed610273366004610d7e565b610631565b61028b610286366004610e10565b6106f3565b6040516001600160a01b039091168152602001610155565b6101496102b1366004610de6565b610711565b6101a25f81565b6101ed6102cb366004610e30565b610739565b6101ed6102de366004610cdc565b610750565b6101ed6102f1366004610d7e565b610815565b6101a2610304366004610cdc565b6108d8565b6101ed610317366004610de6565b6108ee565b6101a25f516020610ed15f395f51905f5281565b6101ed61033e366004610e30565b610912565b5f6001600160e01b03198216635a05180f60e01b148061036757506103678261095e565b92915050565b5f516020610ed15f395f51905f5261038481610992565b81516020808401919091205f818152600490925260409091205460ff16156103ea5760405162461bcd60e51b815260206004820152601460248201527312d95e481a5cc8185b1c9958591e481d985b1a5960621b60448201526064015b60405180910390fd5b5f8181526004602052604090819020805460ff191660011790555133907fcbfa55581c230aeb174d969838d927cdd297755dfb967a33134312f1377ee71d90610434908690610e77565b60405180910390a2505050565b5f8281526020819052604090206001015461045b81610992565b610465838361099c565b50505050565b6001600160a01b03811633146104945760405163334bd91960e11b815260040160405180910390fd5b61049e82826109cf565b505050565b5f516020610ed15f395f51905f526104ba81610992565b81516020808401919091205f818152600290925260409091205460ff1661051f5760405162461bcd60e51b815260206004820152601960248201527843616e6e6f74207265766f6b6520696e76616c6964206b657960381b60448201526064016103e1565b5f8181526002602052604090819020805460ff191690555133907f66e43f8252a3257fe010a4fd6ae50f57624762cc64a6eceadb04b18cfdefac7d90610434908690610e77565b5f516020610ed15f395f51905f5261057d81610992565b5f8281526003602052604090205460ff16156105db5760405162461bcd60e51b815260206004820152601c60248201527f496d616765494420697320616c726561647920737570706f727465640000000060448201526064016103e1565b5f8281526003602052604090819020805460ff19166001179055517f010120d82c0c66b257c0ea628d405b1d3c2d37bb8dd9141f6c5c12cb0375c572906106259084815260200190565b60405180910390a15050565b5f516020610ed15f395f51905f5261064881610992565b81516020808401919091205f818152600290925260409091205460ff16156106a95760405162461bcd60e51b815260206004820152601460248201527312d95e481a5cc8185b1c9958591e481d985b1a5960621b60448201526064016103e1565b5f8181526002602052604090819020805460ff191660011790555133907f0a249d4766726d36cb6d6ac22cf998dc9fc02bb4ff9fda73ec1e3061c8a1db0990610434908690610e77565b5f82815260016020526040812061070a90836109fa565b9392505050565b5f918252602082815260408084206001600160a01b0393909316845291905290205460ff1690565b6107435f82610441565b61074d5f3361046b565b50565b5f516020610ed15f395f51905f5261076781610992565b5f8281526003602052604090205460ff166107ce5760405162461bcd60e51b815260206004820152602160248201527f43616e6e6f74207265766f6b6520756e737570706f7274656420496d616765496044820152601160fa1b60648201526084016103e1565b5f8281526003602052604090819020805460ff19169055517f4072861add20da436ef0a8274b90d102aea17b603f972cc8196d51f1a5d56179906106259084815260200190565b5f516020610ed15f395f51905f5261082c81610992565b81516020808401919091205f818152600490925260409091205460ff166108915760405162461bcd60e51b815260206004820152601960248201527843616e6e6f74207265766f6b6520696e76616c6964206b657960381b60448201526064016103e1565b5f8181526004602052604090819020805460ff191690555133907f69c40cdda8ad6e074bf320a4a76804a6652eb5231bda91b690dcb98010b2707990610434908690610e77565b5f81815260016020526040812061036790610a05565b5f8281526020819052604090206001015461090881610992565b61046583836109cf565b5f61092a5f516020610ed15f395f51905f525f6106f3565b90506109435f516020610ed15f395f51905f52826108ee565b61095a5f516020610ed15f395f51905f5283610441565b5050565b5f6001600160e01b03198216637965db0b60e01b148061036757506301ffc9a760e01b6001600160e01b0319831614610367565b61074d8133610a0e565b5f5f6109a88484610a47565b9050801561070a575f8481526001602052604090206109c79084610ad6565b509392505050565b5f5f6109db8484610aea565b9050801561070a575f8481526001602052604090206109c79084610b53565b5f61070a8383610b67565b5f610367825490565b610a188282610711565b61095a5760405163e2517d3f60e01b81526001600160a01b0382166004820152602481018390526044016103e1565b5f610a528383610711565b610acf575f838152602081815260408083206001600160a01b03861684529091529020805460ff19166001179055610a873390565b6001600160a01b0316826001600160a01b0316847f2f8788117e7eff1d82e926ec794901d17c78024a50270940304540a733656f0d60405160405180910390a4506001610367565b505f610367565b5f61070a836001600160a01b038416610b8d565b5f610af58383610711565b15610acf575f838152602081815260408083206001600160a01b0386168085529252808320805460ff1916905551339286917ff6391f5c32d9c69d2a47ea670b442974b53935d1edc7fd64eb21e047a839171b9190a4506001610367565b5f61070a836001600160a01b038416610bd2565b5f825f018281548110610b7c57610b7c610e89565b905f5260205f200154905092915050565b5f818152600183016020526040812054610acf57508154600181810184555f848152602080822090930184905584548482528286019093526040902091909155610367565b5f8181526001830160205260408120548015610cac575f610bf4600183610e9d565b85549091505f90610c0790600190610e9d565b9050808214610c66575f865f018281548110610c2557610c25610e89565b905f5260205f200154905080875f018481548110610c4557610c45610e89565b5f918252602080832090910192909255918252600188019052604090208390555b8554869080610c7757610c77610ebc565b600190038181905f5260205f20015f90559055856001015f8681526020019081526020015f205f905560019350505050610367565b5f915050610367565b5f60208284031215610cc5575f5ffd5b81356001600160e01b03198116811461070a575f5ffd5b5f60208284031215610cec575f5ffd5b5035919050565b634e487b7160e01b5f52604160045260245ffd5b5f5f67ffffffffffffffff841115610d2157610d21610cf3565b50604051601f19601f85018116603f0116810181811067ffffffffffffffff82111715610d5057610d50610cf3565b604052838152905080828401851015610d67575f5ffd5b838360208301375f60208583010152509392505050565b5f60208284031215610d8e575f5ffd5b813567ffffffffffffffff811115610da4575f5ffd5b8201601f81018413610db4575f5ffd5b610dc384823560208401610d07565b949350505050565b80356001600160a01b0381168114610de1575f5ffd5b919050565b5f5f60408385031215610df7575f5ffd5b82359150610e0760208401610dcb565b90509250929050565b5f5f60408385031215610e21575f5ffd5b50508035926020909101359150565b5f60208284031215610e40575f5ffd5b61070a82610dcb565b5f81518084528060208401602086015e5f602082860101526020601f19601f83011685010191505092915050565b602081525f61070a6020830184610e49565b634e487b7160e01b5f52603260045260245ffd5b8181038181111561036757634e487b7160e01b5f52601160045260245ffd5b634e487b7160e01b5f52603160045260245ffdfeb19546dff01e856fb3f010c267a7b1c60363cf8a4664e21cc89c26224620214ea26469706673582212206aba6e1b163c369c61ad265a802594ac9a6e5cc7978d96205d38c77d45284b5a64736f6c634300081c003360e060405234801561000f575f5ffd5b5060405161144138038061144183398101604081905261002e9161012d565b6001600160a01b03811660c0526100436100b8565b1561006157604051633d23e4d160e11b815260040160405180910390fd5b60405163deafbeef60e01b9061007690610120565b6001600160e01b03199091168152602001604051809103905ff0801580156100a0573d5f5f3e3d5ffd5b506001600160a01b031660a05250600160805261015a565b5f46600114806100c8575046600a145b806100d35750466089145b806100df575046610144145b806100eb5750466101e0145b806100f7575046612105145b8061010357504661a4b1145b8061010f57504661a4ba145b8061011b57504661e708145b905090565b6108af80610b9283390190565b5f6020828403121561013d575f5ffd5b81516001600160a01b0381168114610153575f5ffd5b9392505050565b60805160a05160c0516109f561019d5f395f8181609f0152818161011101526104dd01525f8181605e015261016d01525f818160c8015261020201526109f55ff3fe608060405234801561000f575f5ffd5b5060043610610055575f3560e01c806308c84e70146100595780633fd66f221461009d5780639a44ea84146100c3578063c4fa74e5146100f7578063f4cbae941461010c575b5f5ffd5b6100807f000000000000000000000000000000000000000000000000000000000000000081565b6040516001600160a01b0390911681526020015b60405180910390f35b7f0000000000000000000000000000000000000000000000000000000000000000610080565b6100ea7f000000000000000000000000000000000000000000000000000000000000000081565b604051610094919061063f565b61010a610105366004610692565b610133565b005b6100807f000000000000000000000000000000000000000000000000000000000000000081565b61014a61014536869003860186610826565b610200565b61016361015c36869003860186610826565b8383610293565b6001600160a01b037f00000000000000000000000000000000000000000000000000000000000000001663ab750e756101a96101a4368890038801886108d1565b61059f565b866101400135866040518463ffffffff1660e01b81526004016101ce939291906108f3565b5f6040518083038186803b1580156101e4575f5ffd5b505afa1580156101f6573d5f5f3e3d5ffd5b5050505050505050565b7f000000000000000000000000000000000000000000000000000000000000000060018111156102325761023261062b565b81516040015160018111156102495761024961062b565b146102905760405162461bcd60e51b8152602060048201526012602482015271496e76616c69642070726f6f66206d6f646560701b60448201526064015b60405180910390fd5b50565b816001600160a01b031683606001515f01516001600160a01b0316146102ec5760405162461bcd60e51b815260206004820152600e60248201526d24b73b30b634b210383937bb32b960911b6044820152606401610287565b806001600160e01b0319168360600151602001516001600160e01b0319161461034a5760405162461bcd60e51b815260206004820152601060248201526f24b73b30b634b21039b2b632b1ba37b960811b6044820152606401610287565b46836060015160400151146103945760405162461bcd60e51b815260206004820152601060248201526f125b9d985b1a590818da185a5b881a5960821b6044820152606401610287565b43836060015160600151106103fb5760405162461bcd60e51b815260206004820152602760248201527f496e76616c696420626c6f636b206e756d6265723a20626c6f636b2066726f6d6044820152662066757475726560c81b6064820152608401610287565b436101008460600151606001516104129190610936565b101561046c5760405162461bcd60e51b815260206004820152602360248201527f496e76616c696420626c6f636b206e756d6265723a20626c6f636b20746f6f206044820152621bdb1960ea1b6064820152608401610287565b82606001516060015140836060015160800151146104c15760405162461bcd60e51b8152602060048201526012602482015271092dcecc2d8d2c840c4d8dec6d640d0c2e6d60731b6044820152606401610287565b6020830151604051631af6c43160e01b815260048101919091527f00000000000000000000000000000000000000000000000000000000000000006001600160a01b031690631af6c43190602401602060405180830381865afa15801561052a573d5f5f3e3d5ffd5b505050506040513d601f19601f8201168201806040525081019061054e919061095b565b61059a5760405162461bcd60e51b815260206004820152601760248201527f556e737570706f727465642043616c6c477565737449640000000000000000006044820152606401610287565b505050565b60606001826040015160018111156105b9576105b961062b565b036105fa5750602081810151519151604080516001600160e01b03199092169282019290925260248082019390935281518082039093018352604401905290565b815160208084015160405161061093920161097a565b6040516020818303038152906040529050919050565b919050565b634e487b7160e01b5f52602160045260245ffd5b602081016002831061065f57634e487b7160e01b5f52602160045260245ffd5b91905290565b80356001600160a01b0381168114610626575f5ffd5b80356001600160e01b031981168114610626575f5ffd5b5f5f5f5f8486036102808112156106a7575f5ffd5b6102208112156106b5575f5ffd5b5084935061022084013592506106ce6102408501610665565b91506106dd610260860161067b565b905092959194509250565b634e487b7160e01b5f52604160045260245ffd5b6040516060810167ffffffffffffffff8111828210171561071f5761071f6106e8565b60405290565b604051610100810167ffffffffffffffff8111828210171561071f5761071f6106e8565b6040516080810167ffffffffffffffff8111828210171561071f5761071f6106e8565b60405160a0810167ffffffffffffffff8111828210171561071f5761071f6106e8565b803560028110610626575f5ffd5b5f61014082840312156107ae575f5ffd5b6107b66106fc565b90506107c18261067b565b815282603f8301126107d1575f5ffd5b6107d9610725565b806101208401858111156107eb575f5ffd5b602085015b818110156108085780358452602093840193016107f0565b508160208501526108188161078f565b604085015250505092915050565b5f81830361022081128015610839575f5ffd5b50610842610749565b61084c858561079d565b81526101408401356020820152610160840135604082015260a061017f1983011215610876575f5ffd5b61087e61076c565b915061088d6101808501610665565b825261089c6101a0850161067b565b60208301526101c084013560408301526101e08401356060808401919091526102009094013560808301529283015250919050565b5f61014082840312156108e2575f5ffd5b6108ec838361079d565b9392505050565b606081525f84518060608401528060208701608085015e5f608082850101526080601f19601f830116840101915050836020830152826040830152949350505050565b8082018082111561095557634e487b7160e01b5f52601160045260245ffd5b92915050565b5f6020828403121561096b575f5ffd5b815180151581146108ec575f5ffd5b6001600160e01b0319831681525f6004820183825b60088110156109ae57815183526020928301929091019060010161098f565b50505061010482019050939250505056fea26469706673582212208a5065e54a1406b0d800972df2a3b6f4760e262f024fea5fc356a410d2d3add064736f6c634300081c003360a060405234801561000f575f5ffd5b506040516108af3803806108af83398101604081905261002e91610040565b6001600160e01b03191660805261006e565b5f60208284031215610050575f5ffd5b81516001600160e01b031981168114610067575f5ffd5b9392505050565b6080516108166100995f395f8181605e0152818160ea015281816101f4015261025801526108165ff3fe608060405234801561000f575f5ffd5b5060043610610055575f3560e01c8063053c238d146100595780631599ead51461009e5780633a115bb1146100b357806366cf0e4b14610145578063ab750e7514610158575b5f5ffd5b6100807f000000000000000000000000000000000000000000000000000000000000000081565b6040516001600160e01b031990911681526020015b60405180910390f35b6100b16100ac3660046105b6565b61016b565b005b6101386100c13660046105ed565b60408051808201909152606081525f6020820152604080518082019091526001600160e01b03197f000000000000000000000000000000000000000000000000000000000000000016606082015260648101839052806084810160408051601f198184030181529190528152602001929092525090565b6040516100959190610604565b61013861015336600461064d565b610185565b6100b161016636600461066d565b6101b5565b61018261017882806106e7565b83602001356101d2565b50565b60408051808201909152606081525f60208201526101ae6100c16101a985856102f5565b61037f565b9392505050565b6101cc84846101c76101a986866102f5565b6101d2565b50505050565b6101df60045f8486610731565b6101e891610758565b6001600160e01b0319167f00000000000000000000000000000000000000000000000000000000000000006001600160e01b0319161461028b5761022f60045f8486610731565b61023891610758565b604051632e2ce35360e21b81526001600160e01b031991821660048201527f0000000000000000000000000000000000000000000000000000000000000000909116602482015260440160405180910390fd5b60408051602081018390520160408051601f1981840301815291905280516020909101206102bc8360048187610731565b6040516102ca929190610790565b6040518091039020146102f05760405163439cc0cd60e01b815260040160405180910390fd5b505050565b6102fd610574565b6040805160a0810182528481527fa3acc27117418996340b84e5a90f3ef4c49d22c79e44aad822ec9c313e1eb8e26020820152815180830183529091820190805f81526020015f60ff1681525081526020015f5f1b815260200161037660405180604001604052808681526020015f5f1b8152506104df565b90529392505050565b5f6002806040516103a8907172697363302e52656365697074436c61696d60701b815260120190565b602060405180830381855afa1580156103c3573d5f5f3e3d5ffd5b5050506040513d601f19601f820116820180604052508101906103e691906107b3565b606084015184516020860151608087015160408801515160189060028111156104115761041161079f565b60408a810151602090810151825191820199909952908101969096526060860194909452608085019290925260a084015263ffffffff909116901b60e01b6001600160e01b03191660c082015260f89190911b6001600160f81b03191660c4820152600160fa1b60c882015260ca015b60408051601f198184030181529082905261049b916107ca565b602060405180830381855afa1580156104b6573d5f5f3e3d5ffd5b5050506040513d601f19601f820116820180604052508101906104d991906107b3565b92915050565b5f600280604051610502906b1c9a5cd8cc0b93dd5d1c1d5d60a21b8152600c0190565b602060405180830381855afa15801561051d573d5f5f3e3d5ffd5b5050506040513d601f19601f8201168201806040525081019061054091906107b3565b83516020808601516040805192830194909452928101919091526060810191909152600160f91b6080820152608201610481565b6040518060a001604052805f81526020015f81526020016105a4604080518082019091525f808252602082015290565b81526020015f81526020015f81525090565b5f602082840312156105c6575f5ffd5b813567ffffffffffffffff8111156105dc575f5ffd5b8201604081850312156101ae575f5ffd5b5f602082840312156105fd575f5ffd5b5035919050565b602081525f82516040602084015280518060608501528060208301608086015e5f60808286010152602085015160408501526080601f19601f8301168501019250505092915050565b5f5f6040838503121561065e575f5ffd5b50508035926020909101359150565b5f5f5f5f60608587031215610680575f5ffd5b843567ffffffffffffffff811115610696575f5ffd5b8501601f810187136106a6575f5ffd5b803567ffffffffffffffff8111156106bc575f5ffd5b8760208284010111156106cd575f5ffd5b602091820198909750908601359560400135945092505050565b5f5f8335601e198436030181126106fc575f5ffd5b83018035915067ffffffffffffffff821115610716575f5ffd5b60200191503681900382131561072a575f5ffd5b9250929050565b5f5f8585111561073f575f5ffd5b8386111561074b575f5ffd5b5050820193919092039150565b80356001600160e01b03198116906004841015610789576001600160e01b0319600485900360031b81901b82161691505b5092915050565b818382375f9101908152919050565b634e487b7160e01b5f52602160045260245ffd5b5f602082840312156107c3575f5ffd5b5051919050565b5f82518060208501845e5f92019182525091905056fea2646970667358221220413640f2011045be488af933802c6358dd3230d7fa878ffa729f52b20270a20764736f6c634300081c0033","linkReferences":{}},"methodIdentifiers":{"_setTestVerifier(address)":"9b8b30c8","prover()":"32a8f30f","verifier()":"2b7ac3f3","verify(((bytes4,bytes32[8],uint8),bytes32,uint256,(address,bytes4,uint256,uint256,bytes32)),bytes32)":"b66327c9"},"id":66}