{"abi":[{"type":"constructor","inputs":[{"name":"_poolManager","type":"address","internalType":"contract IPoolManager"}],"stateMutability":"nonpayable"},{"type":"function","name":"afterAddLiquidity","inputs":[{"name":"sender","type":"address","internalType":"address"},{"name":"key","type":"tuple","internalType":"struct PoolKey","components":[{"name":"currency0","type":"address","internalType":"Currency"},{"name":"currency1","type":"address","internalType":"Currency"},{"name":"fee","type":"uint24","internalType":"uint24"},{"name":"tickSpacing","type":"int24","internalType":"int24"},{"name":"hooks","type":"address","internalType":"contract IHooks"}]},{"name":"params","type":"tuple","internalType":"struct IPoolManager.ModifyLiquidityParams","components":[{"name":"tickLower","type":"int24","internalType":"int24"},{"name":"tickUpper","type":"int24","internalType":"int24"},{"name":"liquidityDelta","type":"int256","internalType":"int256"},{"name":"salt","type":"bytes32","internalType":"bytes32"}]},{"name":"delta","type":"int256","internalType":"BalanceDelta"},{"name":"feesAccrued","type":"int256","internalType":"BalanceDelta"},{"name":"hookData","type":"bytes","internalType":"bytes"}],"outputs":[{"name":"","type":"bytes4","internalType":"bytes4"},{"name":"","type":"int256","internalType":"BalanceDelta"}],"stateMutability":"nonpayable"},{"type":"function","name":"afterDonate","inputs":[{"name":"sender","type":"address","internalType":"address"},{"name":"key","type":"tuple","internalType":"struct PoolKey","components":[{"name":"currency0","type":"address","internalType":"Currency"},{"name":"currency1","type":"address","internalType":"Currency"},{"name":"fee","type":"uint24","internalType":"uint24"},{"name":"tickSpacing","type":"int24","internalType":"int24"},{"name":"hooks","type":"address","internalType":"contract IHooks"}]},{"name":"amount0","type":"uint256","internalType":"uint256"},{"name":"amount1","type":"uint256","internalType":"uint256"},{"name":"hookData","type":"bytes","internalType":"bytes"}],"outputs":[{"name":"","type":"bytes4","internalType":"bytes4"}],"stateMutability":"nonpayable"},{"type":"function","name":"afterInitialize","inputs":[{"name":"sender","type":"address","internalType":"address"},{"name":"key","type":"tuple","internalType":"struct PoolKey","components":[{"name":"currency0","type":"address","internalType":"Currency"},{"name":"currency1","type":"address","internalType":"Currency"},{"name":"fee","type":"uint24","internalType":"uint24"},{"name":"tickSpacing","type":"int24","internalType":"int24"},{"name":"hooks","type":"address","internalType":"contract IHooks"}]},{"name":"sqrtPriceX96","type":"uint160","internalType":"uint160"},{"name":"tick","type":"int24","internalType":"int24"}],"outputs":[{"name":"","type":"bytes4","internalType":"bytes4"}],"stateMutability":"nonpayable"},{"type":"function","name":"afterRemoveLiquidity","inputs":[{"name":"sender","type":"address","internalType":"address"},{"name":"key","type":"tuple","internalType":"struct PoolKey","components":[{"name":"currency0","type":"address","internalType":"Currency"},{"name":"currency1","type":"address","internalType":"Currency"},{"name":"fee","type":"uint24","internalType":"uint24"},{"name":"tickSpacing","type":"int24","internalType":"int24"},{"name":"hooks","type":"address","internalType":"contract IHooks"}]},{"name":"params","type":"tuple","internalType":"struct IPoolManager.ModifyLiquidityParams","components":[{"name":"tickLower","type":"int24","internalType":"int24"},{"name":"tickUpper","type":"int24","internalType":"int24"},{"name":"liquidityDelta","type":"int256","internalType":"int256"},{"name":"salt","type":"bytes32","internalType":"bytes32"}]},{"name":"delta","type":"int256","internalType":"BalanceDelta"},{"name":"feesAccrued","type":"int256","internalType":"BalanceDelta"},{"name":"hookData","type":"bytes","internalType":"bytes"}],"outputs":[{"name":"","type":"bytes4","internalType":"bytes4"},{"name":"","type":"int256","internalType":"BalanceDelta"}],"stateMutability":"nonpayable"},{"type":"function","name":"afterSwap","inputs":[{"name":"sender","type":"address","internalType":"address"},{"name":"key","type":"tuple","internalType":"struct PoolKey","components":[{"name":"currency0","type":"address","internalType":"Currency"},{"name":"currency1","type":"address","internalType":"Currency"},{"name":"fee","type":"uint24","internalType":"uint24"},{"name":"tickSpacing","type":"int24","internalType":"int24"},{"name":"hooks","type":"address","internalType":"contract IHooks"}]},{"name":"params","type":"tuple","internalType":"struct IPoolManager.SwapParams","components":[{"name":"zeroForOne","type":"bool","internalType":"bool"},{"name":"amountSpecified","type":"int256","internalType":"int256"},{"name":"sqrtPriceLimitX96","type":"uint160","internalType":"uint160"}]},{"name":"delta","type":"int256","internalType":"BalanceDelta"},{"name":"hookData","type":"bytes","internalType":"bytes"}],"outputs":[{"name":"","type":"bytes4","internalType":"bytes4"},{"name":"","type":"int128","internalType":"int128"}],"stateMutability":"nonpayable"},{"type":"function","name":"beforeAddLiquidity","inputs":[{"name":"sender","type":"address","internalType":"address"},{"name":"key","type":"tuple","internalType":"struct PoolKey","components":[{"name":"currency0","type":"address","internalType":"Currency"},{"name":"currency1","type":"address","internalType":"Currency"},{"name":"fee","type":"uint24","internalType":"uint24"},{"name":"tickSpacing","type":"int24","internalType":"int24"},{"name":"hooks","type":"address","internalType":"contract IHooks"}]},{"name":"params","type":"tuple","internalType":"struct IPoolManager.ModifyLiquidityParams","components":[{"name":"tickLower","type":"int24","internalType":"int24"},{"name":"tickUpper","type":"int24","internalType":"int24"},{"name":"liquidityDelta","type":"int256","internalType":"int256"},{"name":"salt","type":"bytes32","internalType":"bytes32"}]},{"name":"hookData","type":"bytes","internalType":"bytes"}],"outputs":[{"name":"","type":"bytes4","internalType":"bytes4"}],"stateMutability":"nonpayable"},{"type":"function","name":"beforeDonate","inputs":[{"name":"sender","type":"address","internalType":"address"},{"name":"key","type":"tuple","internalType":"struct PoolKey","components":[{"name":"currency0","type":"address","internalType":"Currency"},{"name":"currency1","type":"address","internalType":"Currency"},{"name":"fee","type":"uint24","internalType":"uint24"},{"name":"tickSpacing","type":"int24","internalType":"int24"},{"name":"hooks","type":"address","internalType":"contract IHooks"}]},{"name":"amount0","type":"uint256","internalType":"uint256"},{"name":"amount1","type":"uint256","internalType":"uint256"},{"name":"hookData","type":"bytes","internalType":"bytes"}],"outputs":[{"name":"","type":"bytes4","internalType":"bytes4"}],"stateMutability":"nonpayable"},{"type":"function","name":"beforeInitialize","inputs":[{"name":"sender","type":"address","internalType":"address"},{"name":"key","type":"tuple","internalType":"struct PoolKey","components":[{"name":"currency0","type":"address","internalType":"Currency"},{"name":"currency1","type":"address","internalType":"Currency"},{"name":"fee","type":"uint24","internalType":"uint24"},{"name":"tickSpacing","type":"int24","internalType":"int24"},{"name":"hooks","type":"address","internalType":"contract IHooks"}]},{"name":"sqrtPriceX96","type":"uint160","internalType":"uint160"}],"outputs":[{"name":"","type":"bytes4","internalType":"bytes4"}],"stateMutability":"nonpayable"},{"type":"function","name":"beforeRemoveLiquidity","inputs":[{"name":"sender","type":"address","internalType":"address"},{"name":"key","type":"tuple","internalType":"struct PoolKey","components":[{"name":"currency0","type":"address","internalType":"Currency"},{"name":"currency1","type":"address","internalType":"Currency"},{"name":"fee","type":"uint24","internalType":"uint24"},{"name":"tickSpacing","type":"int24","internalType":"int24"},{"name":"hooks","type":"address","internalType":"contract IHooks"}]},{"name":"params","type":"tuple","internalType":"struct IPoolManager.ModifyLiquidityParams","components":[{"name":"tickLower","type":"int24","internalType":"int24"},{"name":"tickUpper","type":"int24","internalType":"int24"},{"name":"liquidityDelta","type":"int256","internalType":"int256"},{"name":"salt","type":"bytes32","internalType":"bytes32"}]},{"name":"hookData","type":"bytes","internalType":"bytes"}],"outputs":[{"name":"","type":"bytes4","internalType":"bytes4"}],"stateMutability":"nonpayable"},{"type":"function","name":"beforeSwap","inputs":[{"name":"sender","type":"address","internalType":"address"},{"name":"key","type":"tuple","internalType":"struct PoolKey","components":[{"name":"currency0","type":"address","internalType":"Currency"},{"name":"currency1","type":"address","internalType":"Currency"},{"name":"fee","type":"uint24","internalType":"uint24"},{"name":"tickSpacing","type":"int24","internalType":"int24"},{"name":"hooks","type":"address","internalType":"contract IHooks"}]},{"name":"params","type":"tuple","internalType":"struct IPoolManager.SwapParams","components":[{"name":"zeroForOne","type":"bool","internalType":"bool"},{"name":"amountSpecified","type":"int256","internalType":"int256"},{"name":"sqrtPriceLimitX96","type":"uint160","internalType":"uint160"}]},{"name":"hookData","type":"bytes","internalType":"bytes"}],"outputs":[{"name":"","type":"bytes4","internalType":"bytes4"},{"name":"","type":"int256","internalType":"BeforeSwapDelta"},{"name":"","type":"uint24","internalType":"uint24"}],"stateMutability":"nonpayable"},{"type":"function","name":"getHookPermissions","inputs":[],"outputs":[{"name":"","type":"tuple","internalType":"struct Hooks.Permissions","components":[{"name":"beforeInitialize","type":"bool","internalType":"bool"},{"name":"afterInitialize","type":"bool","internalType":"bool"},{"name":"beforeAddLiquidity","type":"bool","internalType":"bool"},{"name":"afterAddLiquidity","type":"bool","internalType":"bool"},{"name":"beforeRemoveLiquidity","type":"bool","internalType":"bool"},{"name":"afterRemoveLiquidity","type":"bool","internalType":"bool"},{"name":"beforeSwap","type":"bool","internalType":"bool"},{"name":"afterSwap","type":"bool","internalType":"bool"},{"name":"beforeDonate","type":"bool","internalType":"bool"},{"name":"afterDonate","type":"bool","internalType":"bool"},{"name":"beforeSwapReturnDelta","type":"bool","internalType":"bool"},{"name":"afterSwapReturnDelta","type":"bool","internalType":"bool"},{"name":"afterAddLiquidityReturnDelta","type":"bool","internalType":"bool"},{"name":"afterRemoveLiquidityReturnDelta","type":"bool","internalType":"bool"}]}],"stateMutability":"pure"},{"type":"function","name":"initializeGatedPool","inputs":[{"name":"key","type":"tuple","internalType":"struct PoolKey","components":[{"name":"currency0","type":"address","internalType":"Currency"},{"name":"currency1","type":"address","internalType":"Currency"},{"name":"fee","type":"uint24","internalType":"uint24"},{"name":"tickSpacing","type":"int24","internalType":"int24"},{"name":"hooks","type":"address","internalType":"contract IHooks"}]},{"name":"sqrtPriceX96","type":"uint160","internalType":"uint160"},{"name":"domainHash","type":"bytes32","internalType":"bytes32"},{"name":"verifier","type":"address","internalType":"address"}],"outputs":[{"name":"tick","type":"int24","internalType":"int24"}],"stateMutability":"nonpayable"},{"type":"function","name":"poolDomainHash","inputs":[{"name":"","type":"bytes32","internalType":"PoolId"}],"outputs":[{"name":"","type":"bytes32","internalType":"bytes32"}],"stateMutability":"view"},{"type":"function","name":"poolManager","inputs":[],"outputs":[{"name":"","type":"address","internalType":"contract IPoolManager"}],"stateMutability":"view"},{"type":"function","name":"poolVerifier","inputs":[{"name":"","type":"bytes32","internalType":"PoolId"}],"outputs":[{"name":"","type":"address","internalType":"address"}],"stateMutability":"view"},{"type":"event","name":"VerificationParamsSetup","inputs":[{"name":"poolId","type":"bytes32","indexed":false,"internalType":"PoolId"},{"name":"domainHash","type":"bytes32","indexed":false,"internalType":"bytes32"},{"name":"verifier","type":"address","indexed":false,"internalType":"address"}],"anonymous":false},{"type":"error","name":"HookNotImplemented","inputs":[]},{"type":"error","name":"NotPoolManager","inputs":[]},{"type":"error","name":"Unauthorized","inputs":[]},{"type":"error","name":"WRONG_HOOK","inputs":[]}],"bytecode":{"object":"0x60a060405234801561000f575f80fd5b506040516129aa3803806129aa833981810160405281019061003191906105e8565b80808073ffffffffffffffffffffffffffffffffffffffff1660808173ffffffffffffffffffffffffffffffffffffffff1681525050506100773061007e60201b60201c565b5050610613565b61009b8161009061009e60201b60201c565b61012660201b60201c565b50565b6100a66104fc565b604051806101c001604052805f151581526020015f151581526020015f151581526020015f151581526020015f151581526020015f151581526020016001151581526020015f151581526020015f151581526020015f151581526020015f151581526020015f151581526020015f151581526020015f1515815250905090565b6101516120008373ffffffffffffffffffffffffffffffffffffffff166104b560201b90919060201c565b1515815f01511515141580610198575061018c6110008373ffffffffffffffffffffffffffffffffffffffff166104b560201b90919060201c565b15158160200151151514155b806101d557506101c96108008373ffffffffffffffffffffffffffffffffffffffff166104b560201b90919060201c565b15158160400151151514155b8061021257506102066104008373ffffffffffffffffffffffffffffffffffffffff166104b560201b90919060201c565b15158160600151151514155b8061024f57506102436102008373ffffffffffffffffffffffffffffffffffffffff166104b560201b90919060201c565b15158160800151151514155b8061028c57506102806101008373ffffffffffffffffffffffffffffffffffffffff166104b560201b90919060201c565b15158160a00151151514155b806102c857506102bc60808373ffffffffffffffffffffffffffffffffffffffff166104b560201b90919060201c565b15158160c00151151514155b8061030457506102f860408373ffffffffffffffffffffffffffffffffffffffff166104b560201b90919060201c565b15158160e00151151514155b80610341575061033460208373ffffffffffffffffffffffffffffffffffffffff166104b560201b90919060201c565b1515816101000151151514155b8061037e575061037160108373ffffffffffffffffffffffffffffffffffffffff166104b560201b90919060201c565b1515816101200151151514155b806103bb57506103ae60088373ffffffffffffffffffffffffffffffffffffffff166104b560201b90919060201c565b1515816101400151151514155b806103f857506103eb60048373ffffffffffffffffffffffffffffffffffffffff166104b560201b90919060201c565b1515816101600151151514155b80610435575061042860028373ffffffffffffffffffffffffffffffffffffffff166104b560201b90919060201c565b1515816101800151151514155b80610472575061046560018373ffffffffffffffffffffffffffffffffffffffff166104b560201b90919060201c565b1515816101a00151151514155b156104b1576104b08263e65af6a060e01b7bffffffffffffffffffffffffffffffffffffffffffffffffffffffff19166104da60201b90919060201c565b5b5050565b5f8082841673ffffffffffffffffffffffffffffffffffffffff161415905092915050565b815f5273ffffffffffffffffffffffffffffffffffffffff811660045260245ffd5b604051806101c001604052805f151581526020015f151581526020015f151581526020015f151581526020015f151581526020015f151581526020015f151581526020015f151581526020015f151581526020015f151581526020015f151581526020015f151581526020015f151581526020015f151581525090565b5f80fd5b5f73ffffffffffffffffffffffffffffffffffffffff82169050919050565b5f6105a68261057d565b9050919050565b5f6105b78261059c565b9050919050565b6105c7816105ad565b81146105d1575f80fd5b50565b5f815190506105e2816105be565b92915050565b5f602082840312156105fd576105fc610579565b5b5f61060a848285016105d4565b91505092915050565b6080516123326106785f395f81816104280152818161058501528181610623015281816106c3015281816107980152818161083d015281816108da0152818161098001528181610a2301528181610b4a01528181610b6f0152610c0901526123325ff3fe608060405234801561000f575f80fd5b50600436106100f3575f3560e01c80636fe7e6eb11610095578063c4e833ce11610064578063c4e833ce1461030c578063dc4c90d31461032a578063dc98354e14610348578063e1b4af6914610378576100f3565b80636fe7e6eb1461024a5780639f063efc1461027a578063b47b2fb1146102ab578063b6a8b0fa146102dc576100f3565b8063259982e5116100d1578063259982e514610187578063575e24b4146101b75780635e860f38146101e95780636c2bbe7e14610219576100f3565b80630b721343146100f757806311d950871461012757806321d0ee7014610157575b5f80fd5b610111600480360381019061010c919061109c565b6103a8565b60405161011e91906110d6565b60405180910390f35b610141600480360381019061013c9190611385565b6103bc565b60405161014e91906113f9565b60405180910390f35b610171600480360381019061016c91906114b3565b610582565b60405161017e9190611573565b60405180910390f35b6101a1600480360381019061019c91906114b3565b610620565b6040516101ae9190611573565b60405180910390f35b6101d160048036038101906101cc91906115aa565b6106be565b6040516101e093929190611681565b60405180910390f35b61020360048036038101906101fe919061109c565b610764565b60405161021091906116c5565b60405180910390f35b610233600480360381019061022e9190611708565b610794565b6040516102419291906117c5565b60405180910390f35b610264600480360381019061025f91906117ec565b61083a565b6040516102719190611573565b60405180910390f35b610294600480360381019061028f9190611708565b6108d6565b6040516102a29291906117c5565b60405180910390f35b6102c560048036038101906102c09190611851565b61097c565b6040516102d3929190611905565b60405180910390f35b6102f660048036038101906102f1919061195f565b610a20565b6040516103039190611573565b60405180910390f35b610314610ac0565b6040516103219190611b2f565b60405180910390f35b610332610b48565b60405161033f9190611b9b565b60405180910390f35b610362600480360381019061035d9190611bb4565b610b6c565b60405161036f9190611573565b60405180910390f35b610392600480360381019061038d919061195f565b610c06565b60405161039f9190611573565b60405180910390f35b5f602052805f5260405f205f915090505481565b5f3073ffffffffffffffffffffffffffffffffffffffff16856080015173ffffffffffffffffffffffffffffffffffffffff1614610426576040517f033911f100000000000000000000000000000000000000000000000000000000815260040160405180910390fd5b7f000000000000000000000000000000000000000000000000000000000000000073ffffffffffffffffffffffffffffffffffffffff16636276cbbe86866040518363ffffffff1660e01b8152600401610481929190611cd7565b6020604051808303815f875af115801561049d573d5f803e3d5ffd5b505050506040513d601f19601f820116820180604052508101906104c19190611d12565b9050825f806104cf88610ca6565b81526020019081526020015f20819055508160015f6104ed88610ca6565b81526020019081526020015f205f6101000a81548173ffffffffffffffffffffffffffffffffffffffff021916908373ffffffffffffffffffffffffffffffffffffffff1602179055507f6f7fa24423158cf6758d6dabac0642f3aa4f6dc4a469cceadbef5d346221f9e861056186610ca6565b848460405161057293929190611d5d565b60405180910390a1949350505050565b5f7f000000000000000000000000000000000000000000000000000000000000000073ffffffffffffffffffffffffffffffffffffffff163373ffffffffffffffffffffffffffffffffffffffff1614610608576040517fae18210a00000000000000000000000000000000000000000000000000000000815260040160405180910390fd5b6106158686868686610cb2565b905095945050505050565b5f7f000000000000000000000000000000000000000000000000000000000000000073ffffffffffffffffffffffffffffffffffffffff163373ffffffffffffffffffffffffffffffffffffffff16146106a6576040517fae18210a00000000000000000000000000000000000000000000000000000000815260040160405180910390fd5b6106b38686868686610ce5565b905095945050505050565b5f805f7f000000000000000000000000000000000000000000000000000000000000000073ffffffffffffffffffffffffffffffffffffffff163373ffffffffffffffffffffffffffffffffffffffff1614610746576040517fae18210a00000000000000000000000000000000000000000000000000000000815260040160405180910390fd5b6107538888888888610d18565b925092509250955095509592505050565b6001602052805f5260405f205f915054906101000a900473ffffffffffffffffffffffffffffffffffffffff1681565b5f807f000000000000000000000000000000000000000000000000000000000000000073ffffffffffffffffffffffffffffffffffffffff163373ffffffffffffffffffffffffffffffffffffffff161461081b576040517fae18210a00000000000000000000000000000000000000000000000000000000815260040160405180910390fd5b61082a89898989898989610e73565b9150915097509795505050505050565b5f7f000000000000000000000000000000000000000000000000000000000000000073ffffffffffffffffffffffffffffffffffffffff163373ffffffffffffffffffffffffffffffffffffffff16146108c0576040517fae18210a00000000000000000000000000000000000000000000000000000000815260040160405180910390fd5b6108cc85858585610ea7565b9050949350505050565b5f807f000000000000000000000000000000000000000000000000000000000000000073ffffffffffffffffffffffffffffffffffffffff163373ffffffffffffffffffffffffffffffffffffffff161461095d576040517fae18210a00000000000000000000000000000000000000000000000000000000815260040160405180910390fd5b61096c89898989898989610eda565b9150915097509795505050505050565b5f807f000000000000000000000000000000000000000000000000000000000000000073ffffffffffffffffffffffffffffffffffffffff163373ffffffffffffffffffffffffffffffffffffffff1614610a03576040517fae18210a00000000000000000000000000000000000000000000000000000000815260040160405180910390fd5b610a11888888888888610f0e565b91509150965096945050505050565b5f7f000000000000000000000000000000000000000000000000000000000000000073ffffffffffffffffffffffffffffffffffffffff163373ffffffffffffffffffffffffffffffffffffffff1614610aa6576040517fae18210a00000000000000000000000000000000000000000000000000000000815260040160405180910390fd5b610ab4878787878787610f42565b90509695505050505050565b610ac8610fdb565b604051806101c001604052805f151581526020015f151581526020015f151581526020015f151581526020015f151581526020015f151581526020016001151581526020015f151581526020015f151581526020015f151581526020015f151581526020015f151581526020015f151581526020015f1515815250905090565b7f000000000000000000000000000000000000000000000000000000000000000081565b5f7f000000000000000000000000000000000000000000000000000000000000000073ffffffffffffffffffffffffffffffffffffffff163373ffffffffffffffffffffffffffffffffffffffff1614610bf2576040517fae18210a00000000000000000000000000000000000000000000000000000000815260040160405180910390fd5b610bfd848484610f75565b90509392505050565b5f7f000000000000000000000000000000000000000000000000000000000000000073ffffffffffffffffffffffffffffffffffffffff163373ffffffffffffffffffffffffffffffffffffffff1614610c8c576040517fae18210a00000000000000000000000000000000000000000000000000000000815260040160405180910390fd5b610c9a878787878787610fa8565b90509695505050505050565b5f60a082209050919050565b5f6040517f0a85dc2900000000000000000000000000000000000000000000000000000000815260040160405180910390fd5b5f6040517f0a85dc2900000000000000000000000000000000000000000000000000000000815260040160405180910390fd5b5f805f805f80610d378a803603810190610d329190611d92565b610ca6565b81526020019081526020015f205490505f8686810190610d57919061201d565b90505f60015f610d768c803603810190610d719190611d92565b610ca6565b81526020019081526020015f205f9054906101000a900473ffffffffffffffffffffffffffffffffffffffff1673ffffffffffffffffffffffffffffffffffffffff1663b66327c983856040518363ffffffff1660e01b8152600401610ddd92919061228d565b6040805180830381865afa158015610df7573d5f803e3d5ffd5b505050506040513d601f19601f82011682018060405250810190610e1b91906122f4565b91505080610e55576040517f82b4290000000000000000000000000000000000000000000000000000000000815260040160405180910390fd5b63575e24b460e01b5f80955095509550505050955095509592505050565b5f806040517f0a85dc2900000000000000000000000000000000000000000000000000000000815260040160405180910390fd5b5f6040517f0a85dc2900000000000000000000000000000000000000000000000000000000815260040160405180910390fd5b5f806040517f0a85dc2900000000000000000000000000000000000000000000000000000000815260040160405180910390fd5b5f806040517f0a85dc2900000000000000000000000000000000000000000000000000000000815260040160405180910390fd5b5f6040517f0a85dc2900000000000000000000000000000000000000000000000000000000815260040160405180910390fd5b5f6040517f0a85dc2900000000000000000000000000000000000000000000000000000000815260040160405180910390fd5b5f6040517f0a85dc2900000000000000000000000000000000000000000000000000000000815260040160405180910390fd5b604051806101c001604052805f151581526020015f151581526020015f151581526020015f151581526020015f151581526020015f151581526020015f151581526020015f151581526020015f151581526020015f151581526020015f151581526020015f151581526020015f151581526020015f151581525090565b5f604051905090565b5f80fd5b5f80fd5b5f819050919050565b61107b81611069565b8114611085575f80fd5b50565b5f8135905061109681611072565b92915050565b5f602082840312156110b1576110b0611061565b5b5f6110be84828501611088565b91505092915050565b6110d081611069565b82525050565b5f6020820190506110e95f8301846110c7565b92915050565b5f80fd5b5f601f19601f8301169050919050565b7f4e487b71000000000000000000000000000000000000000000000000000000005f52604160045260245ffd5b611139826110f3565b810181811067ffffffffffffffff8211171561115857611157611103565b5b80604052505050565b5f61116a611058565b90506111768282611130565b919050565b5f73ffffffffffffffffffffffffffffffffffffffff82169050919050565b5f6111a48261117b565b9050919050565b6111b48161119a565b81146111be575f80fd5b50565b5f813590506111cf816111ab565b92915050565b5f62ffffff82169050919050565b6111ec816111d5565b81146111f6575f80fd5b50565b5f81359050611207816111e3565b92915050565b5f8160020b9050919050565b6112228161120d565b811461122c575f80fd5b50565b5f8135905061123d81611219565b92915050565b5f61124d8261119a565b9050919050565b61125d81611243565b8114611267575f80fd5b50565b5f8135905061127881611254565b92915050565b5f60a08284031215611293576112926110ef565b5b61129d60a0611161565b90505f6112ac848285016111c1565b5f8301525060206112bf848285016111c1565b60208301525060406112d3848285016111f9565b60408301525060606112e78482850161122f565b60608301525060806112fb8482850161126a565b60808301525092915050565b6113108161117b565b811461131a575f80fd5b50565b5f8135905061132b81611307565b92915050565b61133a81611069565b8114611344575f80fd5b50565b5f8135905061135581611331565b92915050565b6113648161119a565b811461136e575f80fd5b50565b5f8135905061137f8161135b565b92915050565b5f805f80610100858703121561139e5761139d611061565b5b5f6113ab8782880161127e565b94505060a06113bc8782880161131d565b93505060c06113cd87828801611347565b92505060e06113de87828801611371565b91505092959194509250565b6113f38161120d565b82525050565b5f60208201905061140c5f8301846113ea565b92915050565b5f80fd5b5f60a0828403121561142b5761142a611412565b5b81905092915050565b5f6080828403121561144957611448611412565b5b81905092915050565b5f80fd5b5f80fd5b5f80fd5b5f8083601f84011261147357611472611452565b5b8235905067ffffffffffffffff8111156114905761148f611456565b5b6020830191508360018202830111156114ac576114ab61145a565b5b9250929050565b5f805f805f61016086880312156114cd576114cc611061565b5b5f6114da88828901611371565b95505060206114eb88828901611416565b94505060c06114fc88828901611434565b93505061014086013567ffffffffffffffff81111561151e5761151d611065565b5b61152a8882890161145e565b92509250509295509295909350565b5f7fffffffff0000000000000000000000000000000000000000000000000000000082169050919050565b61156d81611539565b82525050565b5f6020820190506115865f830184611564565b92915050565b5f606082840312156115a1576115a0611412565b5b81905092915050565b5f805f805f61014086880312156115c4576115c3611061565b5b5f6115d188828901611371565b95505060206115e288828901611416565b94505060c06115f38882890161158c565b93505061012086013567ffffffffffffffff81111561161557611614611065565b5b6116218882890161145e565b92509250509295509295909350565b5f819050919050565b5f819050919050565b5f61165c61165761165284611630565b611639565b611630565b9050919050565b61166c81611642565b82525050565b61167b816111d5565b82525050565b5f6060820190506116945f830186611564565b6116a16020830185611663565b6116ae6040830184611672565b949350505050565b6116bf8161119a565b82525050565b5f6020820190506116d85f8301846116b6565b92915050565b6116e781611630565b81146116f1575f80fd5b50565b5f81359050611702816116de565b92915050565b5f805f805f805f6101a0888a03121561172457611723611061565b5b5f6117318a828b01611371565b97505060206117428a828b01611416565b96505060c06117538a828b01611434565b9550506101406117658a828b016116f4565b9450506101606117778a828b016116f4565b93505061018088013567ffffffffffffffff81111561179957611798611065565b5b6117a58a828b0161145e565b925092505092959891949750929550565b6117bf81611642565b82525050565b5f6040820190506117d85f830185611564565b6117e560208301846117b6565b9392505050565b5f805f80610100858703121561180557611804611061565b5b5f61181287828801611371565b945050602061182387828801611416565b93505060c06118348782880161131d565b92505060e06118458782880161122f565b91505092959194509250565b5f805f805f80610160878903121561186c5761186b611061565b5b5f61187989828a01611371565b965050602061188a89828a01611416565b95505060c061189b89828a0161158c565b9450506101206118ad89828a016116f4565b93505061014087013567ffffffffffffffff8111156118cf576118ce611065565b5b6118db89828a0161145e565b92509250509295509295509295565b5f81600f0b9050919050565b6118ff816118ea565b82525050565b5f6040820190506119185f830185611564565b61192560208301846118f6565b9392505050565b5f819050919050565b61193e8161192c565b8114611948575f80fd5b50565b5f8135905061195981611935565b92915050565b5f805f805f80610120878903121561197a57611979611061565b5b5f61198789828a01611371565b965050602061199889828a01611416565b95505060c06119a989828a0161194b565b94505060e06119ba89828a0161194b565b93505061010087013567ffffffffffffffff8111156119dc576119db611065565b5b6119e889828a0161145e565b92509250509295509295509295565b5f8115159050919050565b611a0b816119f7565b82525050565b6101c082015f820151611a265f850182611a02565b506020820151611a396020850182611a02565b506040820151611a4c6040850182611a02565b506060820151611a5f6060850182611a02565b506080820151611a726080850182611a02565b5060a0820151611a8560a0850182611a02565b5060c0820151611a9860c0850182611a02565b5060e0820151611aab60e0850182611a02565b50610100820151611ac0610100850182611a02565b50610120820151611ad5610120850182611a02565b50610140820151611aea610140850182611a02565b50610160820151611aff610160850182611a02565b50610180820151611b14610180850182611a02565b506101a0820151611b296101a0850182611a02565b50505050565b5f6101c082019050611b435f830184611a11565b92915050565b5f611b63611b5e611b598461117b565b611639565b61117b565b9050919050565b5f611b7482611b49565b9050919050565b5f611b8582611b6a565b9050919050565b611b9581611b7b565b82525050565b5f602082019050611bae5f830184611b8c565b92915050565b5f805f60e08486031215611bcb57611bca611061565b5b5f611bd886828701611371565b9350506020611be986828701611416565b92505060c0611bfa8682870161131d565b9150509250925092565b5f611c0e82611b6a565b9050919050565b611c1e81611c04565b82525050565b611c2d816111d5565b82525050565b611c3c8161120d565b82525050565b5f611c4c82611b6a565b9050919050565b611c5c81611c42565b82525050565b60a082015f820151611c765f850182611c15565b506020820151611c896020850182611c15565b506040820151611c9c6040850182611c24565b506060820151611caf6060850182611c33565b506080820151611cc26080850182611c53565b50505050565b611cd18161117b565b82525050565b5f60c082019050611cea5f830185611c62565b611cf760a0830184611cc8565b9392505050565b5f81519050611d0c81611219565b92915050565b5f60208284031215611d2757611d26611061565b5b5f611d3484828501611cfe565b91505092915050565b5f611d4782611069565b9050919050565b611d5781611d3d565b82525050565b5f606082019050611d705f830186611d4e565b611d7d60208301856110c7565b611d8a60408301846116b6565b949350505050565b5f60a08284031215611da757611da6611061565b5b5f611db48482850161127e565b91505092915050565b611dc681611539565b8114611dd0575f80fd5b50565b5f81359050611de181611dbd565b92915050565b5f67ffffffffffffffff821115611e0157611e00611103565b5b602082029050919050565b5f611e1e611e1984611de7565b611161565b90508060208402830185811115611e3857611e3761145a565b5b835b81811015611e615780611e4d8882611347565b845260208401935050602081019050611e3a565b5050509392505050565b5f82601f830112611e7f57611e7e611452565b5b6008611e8c848285611e0c565b91505092915050565b60028110611ea1575f80fd5b50565b5f81359050611eb281611e95565b92915050565b5f6101408284031215611ece57611ecd6110ef565b5b611ed86060611161565b90505f611ee784828501611dd3565b5f830152506020611efa84828501611e6b565b602083015250610120611f0f84828501611ea4565b60408301525092915050565b5f60a08284031215611f3057611f2f6110ef565b5b611f3a60a0611161565b90505f611f4984828501611371565b5f830152506020611f5c84828501611dd3565b6020830152506040611f708482850161194b565b6040830152506060611f848482850161194b565b6060830152506080611f9884828501611347565b60808301525092915050565b5f6102208284031215611fba57611fb96110ef565b5b611fc46080611161565b90505f611fd384828501611eb8565b5f83015250610140611fe784828501611347565b602083015250610160611ffc8482850161194b565b60408301525061018061201184828501611f1b565b60608301525092915050565b5f610220828403121561203357612032611061565b5b5f61204084828501611fa4565b91505092915050565b61205281611539565b82525050565b5f60089050919050565b5f81905092915050565b5f819050919050565b61207e81611069565b82525050565b5f61208f8383612075565b60208301905092915050565b5f602082019050919050565b6120b081612058565b6120ba8184612062565b92506120c58261206c565b805f5b838110156120f55781516120dc8782612084565b96506120e78361209b565b9250506001810190506120c8565b505050505050565b7f4e487b71000000000000000000000000000000000000000000000000000000005f52602160045260245ffd5b6002811061213b5761213a6120fd565b5b50565b5f81905061214b8261212a565b919050565b5f61215a8261213e565b9050919050565b61216a81612150565b82525050565b61014082015f8201516121855f850182612049565b50602082015161219860208501826120a7565b5060408201516121ac610120850182612161565b50505050565b6121bb8161192c565b82525050565b6121ca8161119a565b82525050565b60a082015f8201516121e45f8501826121c1565b5060208201516121f76020850182612049565b50604082015161220a60408501826121b2565b50606082015161221d60608501826121b2565b5060808201516122306080850182612075565b50505050565b61022082015f82015161224b5f850182612170565b50602082015161225f610140850182612075565b5060408201516122736101608501826121b2565b5060608201516122876101808501826121d0565b50505050565b5f610240820190506122a15f830185612236565b6122af6102208301846110c7565b9392505050565b5f815190506122c481611331565b92915050565b6122d3816119f7565b81146122dd575f80fd5b50565b5f815190506122ee816122ca565b92915050565b5f806040838503121561230a57612309611061565b5b5f612317858286016122b6565b9250506020612328858286016122e0565b915050925092905056","linkReferences":{}},"methodIdentifiers":{"afterAddLiquidity(address,(address,address,uint24,int24,address),(int24,int24,int256,bytes32),int256,int256,bytes)":"9f063efc","afterDonate(address,(address,address,uint24,int24,address),uint256,uint256,bytes)":"e1b4af69","afterInitialize(address,(address,address,uint24,int24,address),uint160,int24)":"6fe7e6eb","afterRemoveLiquidity(address,(address,address,uint24,int24,address),(int24,int24,int256,bytes32),int256,int256,bytes)":"6c2bbe7e","afterSwap(address,(address,address,uint24,int24,address),(bool,int256,uint160),int256,bytes)":"b47b2fb1","beforeAddLiquidity(address,(address,address,uint24,int24,address),(int24,int24,int256,bytes32),bytes)":"259982e5","beforeDonate(address,(address,address,uint24,int24,address),uint256,uint256,bytes)":"b6a8b0fa","beforeInitialize(address,(address,address,uint24,int24,address),uint160)":"dc98354e","beforeRemoveLiquidity(address,(address,address,uint24,int24,address),(int24,int24,int256,bytes32),bytes)":"21d0ee70","beforeSwap(address,(address,address,uint24,int24,address),(bool,int256,uint160),bytes)":"575e24b4","getHookPermissions()":"c4e833ce","initializeGatedPool((address,address,uint24,int24,address),uint160,bytes32,address)":"11d95087","poolDomainHash(bytes32)":"0b721343","poolManager()":"dc4c90d3","poolVerifier(bytes32)":"5e860f38"},"id":132}