{
  "abi": [
    {
      "type": "constructor",
      "inputs": [
        {
          "name": "_poolManager",
          "type": "address",
          "internalType": "contract IPoolManager"
        },
        {
          "name": "_emailVerifier",
          "type": "address",
          "internalType": "address"
        }
      ],
      "stateMutability": "nonpayable"
    },
    {
      "type": "function",
      "name": "EMAIL_VERIFIER",
      "inputs": [],
      "outputs": [
        {
          "name": "",
          "type": "address",
          "internalType": "contract IEmailVerifier"
        }
      ],
      "stateMutability": "view"
    },
    {
      "type": "function",
      "name": "afterAddLiquidity",
      "inputs": [
        {
          "name": "sender",
          "type": "address",
          "internalType": "address"
        },
        {
          "name": "key",
          "type": "tuple",
          "internalType": "struct PoolKey",
          "components": [
            {
              "name": "currency0",
              "type": "address",
              "internalType": "Currency"
            },
            {
              "name": "currency1",
              "type": "address",
              "internalType": "Currency"
            },
            {
              "name": "fee",
              "type": "uint24",
              "internalType": "uint24"
            },
            {
              "name": "tickSpacing",
              "type": "int24",
              "internalType": "int24"
            },
            {
              "name": "hooks",
              "type": "address",
              "internalType": "contract IHooks"
            }
          ]
        },
        {
          "name": "params",
          "type": "tuple",
          "internalType": "struct IPoolManager.ModifyLiquidityParams",
          "components": [
            {
              "name": "tickLower",
              "type": "int24",
              "internalType": "int24"
            },
            {
              "name": "tickUpper",
              "type": "int24",
              "internalType": "int24"
            },
            {
              "name": "liquidityDelta",
              "type": "int256",
              "internalType": "int256"
            },
            {
              "name": "salt",
              "type": "bytes32",
              "internalType": "bytes32"
            }
          ]
        },
        {
          "name": "delta",
          "type": "int256",
          "internalType": "BalanceDelta"
        },
        {
          "name": "feesAccrued",
          "type": "int256",
          "internalType": "BalanceDelta"
        },
        {
          "name": "hookData",
          "type": "bytes",
          "internalType": "bytes"
        }
      ],
      "outputs": [
        {
          "name": "",
          "type": "bytes4",
          "internalType": "bytes4"
        },
        {
          "name": "",
          "type": "int256",
          "internalType": "BalanceDelta"
        }
      ],
      "stateMutability": "nonpayable"
    },
    {
      "type": "function",
      "name": "afterDonate",
      "inputs": [
        {
          "name": "sender",
          "type": "address",
          "internalType": "address"
        },
        {
          "name": "key",
          "type": "tuple",
          "internalType": "struct PoolKey",
          "components": [
            {
              "name": "currency0",
              "type": "address",
              "internalType": "Currency"
            },
            {
              "name": "currency1",
              "type": "address",
              "internalType": "Currency"
            },
            {
              "name": "fee",
              "type": "uint24",
              "internalType": "uint24"
            },
            {
              "name": "tickSpacing",
              "type": "int24",
              "internalType": "int24"
            },
            {
              "name": "hooks",
              "type": "address",
              "internalType": "contract IHooks"
            }
          ]
        },
        {
          "name": "amount0",
          "type": "uint256",
          "internalType": "uint256"
        },
        {
          "name": "amount1",
          "type": "uint256",
          "internalType": "uint256"
        },
        {
          "name": "hookData",
          "type": "bytes",
          "internalType": "bytes"
        }
      ],
      "outputs": [
        {
          "name": "",
          "type": "bytes4",
          "internalType": "bytes4"
        }
      ],
      "stateMutability": "nonpayable"
    },
    {
      "type": "function",
      "name": "afterInitialize",
      "inputs": [
        {
          "name": "sender",
          "type": "address",
          "internalType": "address"
        },
        {
          "name": "key",
          "type": "tuple",
          "internalType": "struct PoolKey",
          "components": [
            {
              "name": "currency0",
              "type": "address",
              "internalType": "Currency"
            },
            {
              "name": "currency1",
              "type": "address",
              "internalType": "Currency"
            },
            {
              "name": "fee",
              "type": "uint24",
              "internalType": "uint24"
            },
            {
              "name": "tickSpacing",
              "type": "int24",
              "internalType": "int24"
            },
            {
              "name": "hooks",
              "type": "address",
              "internalType": "contract IHooks"
            }
          ]
        },
        {
          "name": "sqrtPriceX96",
          "type": "uint160",
          "internalType": "uint160"
        },
        {
          "name": "tick",
          "type": "int24",
          "internalType": "int24"
        }
      ],
      "outputs": [
        {
          "name": "",
          "type": "bytes4",
          "internalType": "bytes4"
        }
      ],
      "stateMutability": "nonpayable"
    },
    {
      "type": "function",
      "name": "afterRemoveLiquidity",
      "inputs": [
        {
          "name": "sender",
          "type": "address",
          "internalType": "address"
        },
        {
          "name": "key",
          "type": "tuple",
          "internalType": "struct PoolKey",
          "components": [
            {
              "name": "currency0",
              "type": "address",
              "internalType": "Currency"
            },
            {
              "name": "currency1",
              "type": "address",
              "internalType": "Currency"
            },
            {
              "name": "fee",
              "type": "uint24",
              "internalType": "uint24"
            },
            {
              "name": "tickSpacing",
              "type": "int24",
              "internalType": "int24"
            },
            {
              "name": "hooks",
              "type": "address",
              "internalType": "contract IHooks"
            }
          ]
        },
        {
          "name": "params",
          "type": "tuple",
          "internalType": "struct IPoolManager.ModifyLiquidityParams",
          "components": [
            {
              "name": "tickLower",
              "type": "int24",
              "internalType": "int24"
            },
            {
              "name": "tickUpper",
              "type": "int24",
              "internalType": "int24"
            },
            {
              "name": "liquidityDelta",
              "type": "int256",
              "internalType": "int256"
            },
            {
              "name": "salt",
              "type": "bytes32",
              "internalType": "bytes32"
            }
          ]
        },
        {
          "name": "delta",
          "type": "int256",
          "internalType": "BalanceDelta"
        },
        {
          "name": "feesAccrued",
          "type": "int256",
          "internalType": "BalanceDelta"
        },
        {
          "name": "hookData",
          "type": "bytes",
          "internalType": "bytes"
        }
      ],
      "outputs": [
        {
          "name": "",
          "type": "bytes4",
          "internalType": "bytes4"
        },
        {
          "name": "",
          "type": "int256",
          "internalType": "BalanceDelta"
        }
      ],
      "stateMutability": "nonpayable"
    },
    {
      "type": "function",
      "name": "afterSwap",
      "inputs": [
        {
          "name": "sender",
          "type": "address",
          "internalType": "address"
        },
        {
          "name": "key",
          "type": "tuple",
          "internalType": "struct PoolKey",
          "components": [
            {
              "name": "currency0",
              "type": "address",
              "internalType": "Currency"
            },
            {
              "name": "currency1",
              "type": "address",
              "internalType": "Currency"
            },
            {
              "name": "fee",
              "type": "uint24",
              "internalType": "uint24"
            },
            {
              "name": "tickSpacing",
              "type": "int24",
              "internalType": "int24"
            },
            {
              "name": "hooks",
              "type": "address",
              "internalType": "contract IHooks"
            }
          ]
        },
        {
          "name": "params",
          "type": "tuple",
          "internalType": "struct IPoolManager.SwapParams",
          "components": [
            {
              "name": "zeroForOne",
              "type": "bool",
              "internalType": "bool"
            },
            {
              "name": "amountSpecified",
              "type": "int256",
              "internalType": "int256"
            },
            {
              "name": "sqrtPriceLimitX96",
              "type": "uint160",
              "internalType": "uint160"
            }
          ]
        },
        {
          "name": "delta",
          "type": "int256",
          "internalType": "BalanceDelta"
        },
        {
          "name": "hookData",
          "type": "bytes",
          "internalType": "bytes"
        }
      ],
      "outputs": [
        {
          "name": "",
          "type": "bytes4",
          "internalType": "bytes4"
        },
        {
          "name": "",
          "type": "int128",
          "internalType": "int128"
        }
      ],
      "stateMutability": "nonpayable"
    },
    {
      "type": "function",
      "name": "beforeAddLiquidity",
      "inputs": [
        {
          "name": "sender",
          "type": "address",
          "internalType": "address"
        },
        {
          "name": "key",
          "type": "tuple",
          "internalType": "struct PoolKey",
          "components": [
            {
              "name": "currency0",
              "type": "address",
              "internalType": "Currency"
            },
            {
              "name": "currency1",
              "type": "address",
              "internalType": "Currency"
            },
            {
              "name": "fee",
              "type": "uint24",
              "internalType": "uint24"
            },
            {
              "name": "tickSpacing",
              "type": "int24",
              "internalType": "int24"
            },
            {
              "name": "hooks",
              "type": "address",
              "internalType": "contract IHooks"
            }
          ]
        },
        {
          "name": "params",
          "type": "tuple",
          "internalType": "struct IPoolManager.ModifyLiquidityParams",
          "components": [
            {
              "name": "tickLower",
              "type": "int24",
              "internalType": "int24"
            },
            {
              "name": "tickUpper",
              "type": "int24",
              "internalType": "int24"
            },
            {
              "name": "liquidityDelta",
              "type": "int256",
              "internalType": "int256"
            },
            {
              "name": "salt",
              "type": "bytes32",
              "internalType": "bytes32"
            }
          ]
        },
        {
          "name": "hookData",
          "type": "bytes",
          "internalType": "bytes"
        }
      ],
      "outputs": [
        {
          "name": "",
          "type": "bytes4",
          "internalType": "bytes4"
        }
      ],
      "stateMutability": "nonpayable"
    },
    {
      "type": "function",
      "name": "beforeDonate",
      "inputs": [
        {
          "name": "sender",
          "type": "address",
          "internalType": "address"
        },
        {
          "name": "key",
          "type": "tuple",
          "internalType": "struct PoolKey",
          "components": [
            {
              "name": "currency0",
              "type": "address",
              "internalType": "Currency"
            },
            {
              "name": "currency1",
              "type": "address",
              "internalType": "Currency"
            },
            {
              "name": "fee",
              "type": "uint24",
              "internalType": "uint24"
            },
            {
              "name": "tickSpacing",
              "type": "int24",
              "internalType": "int24"
            },
            {
              "name": "hooks",
              "type": "address",
              "internalType": "contract IHooks"
            }
          ]
        },
        {
          "name": "amount0",
          "type": "uint256",
          "internalType": "uint256"
        },
        {
          "name": "amount1",
          "type": "uint256",
          "internalType": "uint256"
        },
        {
          "name": "hookData",
          "type": "bytes",
          "internalType": "bytes"
        }
      ],
      "outputs": [
        {
          "name": "",
          "type": "bytes4",
          "internalType": "bytes4"
        }
      ],
      "stateMutability": "nonpayable"
    },
    {
      "type": "function",
      "name": "beforeInitialize",
      "inputs": [
        {
          "name": "sender",
          "type": "address",
          "internalType": "address"
        },
        {
          "name": "key",
          "type": "tuple",
          "internalType": "struct PoolKey",
          "components": [
            {
              "name": "currency0",
              "type": "address",
              "internalType": "Currency"
            },
            {
              "name": "currency1",
              "type": "address",
              "internalType": "Currency"
            },
            {
              "name": "fee",
              "type": "uint24",
              "internalType": "uint24"
            },
            {
              "name": "tickSpacing",
              "type": "int24",
              "internalType": "int24"
            },
            {
              "name": "hooks",
              "type": "address",
              "internalType": "contract IHooks"
            }
          ]
        },
        {
          "name": "sqrtPriceX96",
          "type": "uint160",
          "internalType": "uint160"
        }
      ],
      "outputs": [
        {
          "name": "",
          "type": "bytes4",
          "internalType": "bytes4"
        }
      ],
      "stateMutability": "nonpayable"
    },
    {
      "type": "function",
      "name": "beforeRemoveLiquidity",
      "inputs": [
        {
          "name": "sender",
          "type": "address",
          "internalType": "address"
        },
        {
          "name": "key",
          "type": "tuple",
          "internalType": "struct PoolKey",
          "components": [
            {
              "name": "currency0",
              "type": "address",
              "internalType": "Currency"
            },
            {
              "name": "currency1",
              "type": "address",
              "internalType": "Currency"
            },
            {
              "name": "fee",
              "type": "uint24",
              "internalType": "uint24"
            },
            {
              "name": "tickSpacing",
              "type": "int24",
              "internalType": "int24"
            },
            {
              "name": "hooks",
              "type": "address",
              "internalType": "contract IHooks"
            }
          ]
        },
        {
          "name": "params",
          "type": "tuple",
          "internalType": "struct IPoolManager.ModifyLiquidityParams",
          "components": [
            {
              "name": "tickLower",
              "type": "int24",
              "internalType": "int24"
            },
            {
              "name": "tickUpper",
              "type": "int24",
              "internalType": "int24"
            },
            {
              "name": "liquidityDelta",
              "type": "int256",
              "internalType": "int256"
            },
            {
              "name": "salt",
              "type": "bytes32",
              "internalType": "bytes32"
            }
          ]
        },
        {
          "name": "hookData",
          "type": "bytes",
          "internalType": "bytes"
        }
      ],
      "outputs": [
        {
          "name": "",
          "type": "bytes4",
          "internalType": "bytes4"
        }
      ],
      "stateMutability": "nonpayable"
    },
    {
      "type": "function",
      "name": "beforeSwap",
      "inputs": [
        {
          "name": "sender",
          "type": "address",
          "internalType": "address"
        },
        {
          "name": "key",
          "type": "tuple",
          "internalType": "struct PoolKey",
          "components": [
            {
              "name": "currency0",
              "type": "address",
              "internalType": "Currency"
            },
            {
              "name": "currency1",
              "type": "address",
              "internalType": "Currency"
            },
            {
              "name": "fee",
              "type": "uint24",
              "internalType": "uint24"
            },
            {
              "name": "tickSpacing",
              "type": "int24",
              "internalType": "int24"
            },
            {
              "name": "hooks",
              "type": "address",
              "internalType": "contract IHooks"
            }
          ]
        },
        {
          "name": "params",
          "type": "tuple",
          "internalType": "struct IPoolManager.SwapParams",
          "components": [
            {
              "name": "zeroForOne",
              "type": "bool",
              "internalType": "bool"
            },
            {
              "name": "amountSpecified",
              "type": "int256",
              "internalType": "int256"
            },
            {
              "name": "sqrtPriceLimitX96",
              "type": "uint160",
              "internalType": "uint160"
            }
          ]
        },
        {
          "name": "hookData",
          "type": "bytes",
          "internalType": "bytes"
        }
      ],
      "outputs": [
        {
          "name": "",
          "type": "bytes4",
          "internalType": "bytes4"
        },
        {
          "name": "",
          "type": "int256",
          "internalType": "BeforeSwapDelta"
        },
        {
          "name": "",
          "type": "uint24",
          "internalType": "uint24"
        }
      ],
      "stateMutability": "nonpayable"
    },
    {
      "type": "function",
      "name": "getHookPermissions",
      "inputs": [],
      "outputs": [
        {
          "name": "",
          "type": "tuple",
          "internalType": "struct Hooks.Permissions",
          "components": [
            {
              "name": "beforeInitialize",
              "type": "bool",
              "internalType": "bool"
            },
            {
              "name": "afterInitialize",
              "type": "bool",
              "internalType": "bool"
            },
            {
              "name": "beforeAddLiquidity",
              "type": "bool",
              "internalType": "bool"
            },
            {
              "name": "afterAddLiquidity",
              "type": "bool",
              "internalType": "bool"
            },
            {
              "name": "beforeRemoveLiquidity",
              "type": "bool",
              "internalType": "bool"
            },
            {
              "name": "afterRemoveLiquidity",
              "type": "bool",
              "internalType": "bool"
            },
            {
              "name": "beforeSwap",
              "type": "bool",
              "internalType": "bool"
            },
            {
              "name": "afterSwap",
              "type": "bool",
              "internalType": "bool"
            },
            {
              "name": "beforeDonate",
              "type": "bool",
              "internalType": "bool"
            },
            {
              "name": "afterDonate",
              "type": "bool",
              "internalType": "bool"
            },
            {
              "name": "beforeSwapReturnDelta",
              "type": "bool",
              "internalType": "bool"
            },
            {
              "name": "afterSwapReturnDelta",
              "type": "bool",
              "internalType": "bool"
            },
            {
              "name": "afterAddLiquidityReturnDelta",
              "type": "bool",
              "internalType": "bool"
            },
            {
              "name": "afterRemoveLiquidityReturnDelta",
              "type": "bool",
              "internalType": "bool"
            }
          ]
        }
      ],
      "stateMutability": "pure"
    },
    {
      "type": "function",
      "name": "initializeGatedPool",
      "inputs": [
        {
          "name": "key",
          "type": "tuple",
          "internalType": "struct PoolKey",
          "components": [
            {
              "name": "currency0",
              "type": "address",
              "internalType": "Currency"
            },
            {
              "name": "currency1",
              "type": "address",
              "internalType": "Currency"
            },
            {
              "name": "fee",
              "type": "uint24",
              "internalType": "uint24"
            },
            {
              "name": "tickSpacing",
              "type": "int24",
              "internalType": "int24"
            },
            {
              "name": "hooks",
              "type": "address",
              "internalType": "contract IHooks"
            }
          ]
        },
        {
          "name": "sqrtPriceX96",
          "type": "uint160",
          "internalType": "uint160"
        },
        {
          "name": "domainHash",
          "type": "bytes32",
          "internalType": "bytes32"
        }
      ],
      "outputs": [
        {
          "name": "tick",
          "type": "int24",
          "internalType": "int24"
        }
      ],
      "stateMutability": "nonpayable"
    },
    {
      "type": "function",
      "name": "poolDomainHash",
      "inputs": [
        {
          "name": "",
          "type": "bytes32",
          "internalType": "PoolId"
        }
      ],
      "outputs": [
        {
          "name": "",
          "type": "bytes32",
          "internalType": "bytes32"
        }
      ],
      "stateMutability": "view"
    },
    {
      "type": "function",
      "name": "poolManager",
      "inputs": [],
      "outputs": [
        {
          "name": "",
          "type": "address",
          "internalType": "contract IPoolManager"
        }
      ],
      "stateMutability": "view"
    },
    {
      "type": "event",
      "name": "VerificationParamsSetup",
      "inputs": [
        {
          "name": "poolId",
          "type": "bytes32",
          "indexed": false,
          "internalType": "PoolId"
        },
        {
          "name": "domainHash",
          "type": "bytes32",
          "indexed": false,
          "internalType": "bytes32"
        }
      ],
      "anonymous": false
    },
    {
      "type": "error",
      "name": "HookNotImplemented",
      "inputs": []
    },
    {
      "type": "error",
      "name": "NotPoolManager",
      "inputs": []
    },
    {
      "type": "error",
      "name": "Unauthorized",
      "inputs": []
    },
    {
      "type": "error",
      "name": "WRONG_HOOK",
      "inputs": []
    }
  ],
  "bytecode": {
    "object": "0x60c060405234801561000f575f80fd5b5060405161297a38038061297a83398181016040528101906100319190610647565b81808073ffffffffffffffffffffffffffffffffffffffff1660808173ffffffffffffffffffffffffffffffffffffffff168152505050610077306100b360201b60201c565b508073ffffffffffffffffffffffffffffffffffffffff1660a08173ffffffffffffffffffffffffffffffffffffffff16815250505050610685565b6100d0816100c56100d360201b60201c565b61015b60201b60201c565b50565b6100db610531565b604051806101c001604052805f151581526020015f151581526020015f151581526020015f151581526020015f151581526020015f151581526020016001151581526020015f151581526020015f151581526020015f151581526020015f151581526020015f151581526020015f151581526020015f1515815250905090565b6101866120008373ffffffffffffffffffffffffffffffffffffffff166104ea60201b90919060201c565b1515815f015115151415806101cd57506101c16110008373ffffffffffffffffffffffffffffffffffffffff166104ea60201b90919060201c565b15158160200151151514155b8061020a57506101fe6108008373ffffffffffffffffffffffffffffffffffffffff166104ea60201b90919060201c565b15158160400151151514155b80610247575061023b6104008373ffffffffffffffffffffffffffffffffffffffff166104ea60201b90919060201c565b15158160600151151514155b8061028457506102786102008373ffffffffffffffffffffffffffffffffffffffff166104ea60201b90919060201c565b15158160800151151514155b806102c157506102b56101008373ffffffffffffffffffffffffffffffffffffffff166104ea60201b90919060201c565b15158160a00151151514155b806102fd57506102f160808373ffffffffffffffffffffffffffffffffffffffff166104ea60201b90919060201c565b15158160c00151151514155b80610339575061032d60408373ffffffffffffffffffffffffffffffffffffffff166104ea60201b90919060201c565b15158160e00151151514155b80610376575061036960208373ffffffffffffffffffffffffffffffffffffffff166104ea60201b90919060201c565b1515816101000151151514155b806103b357506103a660108373ffffffffffffffffffffffffffffffffffffffff166104ea60201b90919060201c565b1515816101200151151514155b806103f057506103e360088373ffffffffffffffffffffffffffffffffffffffff166104ea60201b90919060201c565b1515816101400151151514155b8061042d575061042060048373ffffffffffffffffffffffffffffffffffffffff166104ea60201b90919060201c565b1515816101600151151514155b8061046a575061045d60028373ffffffffffffffffffffffffffffffffffffffff166104ea60201b90919060201c565b1515816101800151151514155b806104a7575061049a60018373ffffffffffffffffffffffffffffffffffffffff166104ea60201b90919060201c565b1515816101a00151151514155b156104e6576104e58263e65af6a060e01b7bffffffffffffffffffffffffffffffffffffffffffffffffffffffff191661050f60201b90919060201c565b5b5050565b5f8082841673ffffffffffffffffffffffffffffffffffffffff161415905092915050565b815f5273ffffffffffffffffffffffffffffffffffffffff811660045260245ffd5b604051806101c001604052805f151581526020015f151581526020015f151581526020015f151581526020015f151581526020015f151581526020015f151581526020015f151581526020015f151581526020015f151581526020015f151581526020015f151581526020015f151581526020015f151581525090565b5f80fd5b5f73ffffffffffffffffffffffffffffffffffffffff82169050919050565b5f6105db826105b2565b9050919050565b5f6105ec826105d1565b9050919050565b6105fc816105e2565b8114610606575f80fd5b50565b5f81519050610617816105f3565b92915050565b610626816105d1565b8114610630575f80fd5b50565b5f815190506106418161061d565b92915050565b5f806040838503121561065d5761065c6105ae565b5b5f61066a85828601610609565b925050602061067b85828601610633565b9150509250929050565b60805160a0516122806106fa5f395f81816103ac0152610ce401525f818161043a0152818161053d015281816105db0152818161067b01528181610720015281816107c50152818161086201528181610908015281816109ab01528181610ad201528181610af70152610b9101526122805ff3fe608060405234801561000f575f80fd5b50600436106100f3575f3560e01c80636fe7e6eb11610095578063c4e833ce11610064578063c4e833ce146102fa578063dc4c90d314610318578063dc98354e14610336578063e1b4af6914610366576100f3565b80636fe7e6eb146102385780639f063efc14610268578063b47b2fb114610299578063b6a8b0fa146102ca576100f3565b806321d0ee70116100d157806321d0ee7014610175578063259982e5146101a5578063575e24b4146101d55780636c2bbe7e14610207576100f3565b80630b721343146100f75780630db2caf0146101275780631ab641a214610145575b5f80fd5b610111600480360381019061010c9190610ffc565b610396565b60405161011e9190611036565b60405180910390f35b61012f6103aa565b60405161013c91906110c9565b60405180910390f35b61015f600480360381019061015a919061132f565b6103ce565b60405161016c919061138e565b60405180910390f35b61018f600480360381019061018a9190611472565b61053a565b60405161019c9190611532565b60405180910390f35b6101bf60048036038101906101ba9190611472565b6105d8565b6040516101cc9190611532565b60405180910390f35b6101ef60048036038101906101ea9190611569565b610676565b6040516101fe93929190611637565b60405180910390f35b610221600480360381019061021c9190611696565b61071c565b60405161022f929190611753565b60405180910390f35b610252600480360381019061024d919061177a565b6107c2565b60405161025f9190611532565b60405180910390f35b610282600480360381019061027d9190611696565b61085e565b604051610290929190611753565b60405180910390f35b6102b360048036038101906102ae91906117df565b610904565b6040516102c1929190611893565b60405180910390f35b6102e460048036038101906102df91906118ed565b6109a8565b6040516102f19190611532565b60405180910390f35b610302610a48565b60405161030f9190611abd565b60405180910390f35b610320610ad0565b60405161032d9190611af7565b60405180910390f35b610350600480360381019061034b9190611b10565b610af4565b60405161035d9190611532565b60405180910390f35b610380600480360381019061037b91906118ed565b610b8e565b60405161038d9190611532565b60405180910390f35b5f602052805f5260405f205f915090505481565b7f000000000000000000000000000000000000000000000000000000000000000081565b5f3073ffffffffffffffffffffffffffffffffffffffff16846080015173ffffffffffffffffffffffffffffffffffffffff1614610438576040517f033911f100000000000000000000000000000000000000000000000000000000815260040160405180910390fd5b7f000000000000000000000000000000000000000000000000000000000000000073ffffffffffffffffffffffffffffffffffffffff16636276cbbe85856040518363ffffffff1660e01b8152600401610493929190611c33565b6020604051808303815f875af11580156104af573d5f803e3d5ffd5b505050506040513d601f19601f820116820180604052508101906104d39190611c6e565b9050815f806104e187610c2e565b81526020019081526020015f20819055507fb4ca57dcd243164f5d52c4bf727606df9c99f2a29d9b0c61d4f9274ee8b7c07761051c85610c2e565b8360405161052b929190611cb9565b60405180910390a19392505050565b5f7f000000000000000000000000000000000000000000000000000000000000000073ffffffffffffffffffffffffffffffffffffffff163373ffffffffffffffffffffffffffffffffffffffff16146105c0576040517fae18210a00000000000000000000000000000000000000000000000000000000815260040160405180910390fd5b6105cd8686868686610c3a565b905095945050505050565b5f7f000000000000000000000000000000000000000000000000000000000000000073ffffffffffffffffffffffffffffffffffffffff163373ffffffffffffffffffffffffffffffffffffffff161461065e576040517fae18210a00000000000000000000000000000000000000000000000000000000815260040160405180910390fd5b61066b8686868686610c6d565b905095945050505050565b5f805f7f000000000000000000000000000000000000000000000000000000000000000073ffffffffffffffffffffffffffffffffffffffff163373ffffffffffffffffffffffffffffffffffffffff16146106fe576040517fae18210a00000000000000000000000000000000000000000000000000000000815260040160405180910390fd5b61070b8888888888610ca0565b925092509250955095509592505050565b5f807f000000000000000000000000000000000000000000000000000000000000000073ffffffffffffffffffffffffffffffffffffffff163373ffffffffffffffffffffffffffffffffffffffff16146107a3576040517fae18210a00000000000000000000000000000000000000000000000000000000815260040160405180910390fd5b6107b289898989898989610dd3565b9150915097509795505050505050565b5f7f000000000000000000000000000000000000000000000000000000000000000073ffffffffffffffffffffffffffffffffffffffff163373ffffffffffffffffffffffffffffffffffffffff1614610848576040517fae18210a00000000000000000000000000000000000000000000000000000000815260040160405180910390fd5b61085485858585610e07565b9050949350505050565b5f807f000000000000000000000000000000000000000000000000000000000000000073ffffffffffffffffffffffffffffffffffffffff163373ffffffffffffffffffffffffffffffffffffffff16146108e5576040517fae18210a00000000000000000000000000000000000000000000000000000000815260040160405180910390fd5b6108f489898989898989610e3a565b9150915097509795505050505050565b5f807f000000000000000000000000000000000000000000000000000000000000000073ffffffffffffffffffffffffffffffffffffffff163373ffffffffffffffffffffffffffffffffffffffff161461098b576040517fae18210a00000000000000000000000000000000000000000000000000000000815260040160405180910390fd5b610999888888888888610e6e565b91509150965096945050505050565b5f7f000000000000000000000000000000000000000000000000000000000000000073ffffffffffffffffffffffffffffffffffffffff163373ffffffffffffffffffffffffffffffffffffffff1614610a2e576040517fae18210a00000000000000000000000000000000000000000000000000000000815260040160405180910390fd5b610a3c878787878787610ea2565b90509695505050505050565b610a50610f3b565b604051806101c001604052805f151581526020015f151581526020015f151581526020015f151581526020015f151581526020015f151581526020016001151581526020015f151581526020015f151581526020015f151581526020015f151581526020015f151581526020015f151581526020015f1515815250905090565b7f000000000000000000000000000000000000000000000000000000000000000081565b5f7f000000000000000000000000000000000000000000000000000000000000000073ffffffffffffffffffffffffffffffffffffffff163373ffffffffffffffffffffffffffffffffffffffff1614610b7a576040517fae18210a00000000000000000000000000000000000000000000000000000000815260040160405180910390fd5b610b85848484610ed5565b90509392505050565b5f7f000000000000000000000000000000000000000000000000000000000000000073ffffffffffffffffffffffffffffffffffffffff163373ffffffffffffffffffffffffffffffffffffffff1614610c14576040517fae18210a00000000000000000000000000000000000000000000000000000000815260040160405180910390fd5b610c22878787878787610f08565b90509695505050505050565b5f60a082209050919050565b5f6040517f0a85dc2900000000000000000000000000000000000000000000000000000000815260040160405180910390fd5b5f6040517f0a85dc2900000000000000000000000000000000000000000000000000000000815260040160405180910390fd5b5f805f805f80610cbf8a803603810190610cba9190611ce0565b610c2e565b81526020019081526020015f205490505f8686810190610cdf9190611f6b565b90505f7f000000000000000000000000000000000000000000000000000000000000000073ffffffffffffffffffffffffffffffffffffffff1663b66327c983856040518363ffffffff1660e01b8152600401610d3d9291906121db565b6040805180830381865afa158015610d57573d5f803e3d5ffd5b505050506040513d601f19601f82011682018060405250810190610d7b9190612242565b91505080610db5576040517f82b4290000000000000000000000000000000000000000000000000000000000815260040160405180910390fd5b63575e24b460e01b5f80955095509550505050955095509592505050565b5f806040517f0a85dc2900000000000000000000000000000000000000000000000000000000815260040160405180910390fd5b5f6040517f0a85dc2900000000000000000000000000000000000000000000000000000000815260040160405180910390fd5b5f806040517f0a85dc2900000000000000000000000000000000000000000000000000000000815260040160405180910390fd5b5f806040517f0a85dc2900000000000000000000000000000000000000000000000000000000815260040160405180910390fd5b5f6040517f0a85dc2900000000000000000000000000000000000000000000000000000000815260040160405180910390fd5b5f6040517f0a85dc2900000000000000000000000000000000000000000000000000000000815260040160405180910390fd5b5f6040517f0a85dc2900000000000000000000000000000000000000000000000000000000815260040160405180910390fd5b604051806101c001604052805f151581526020015f151581526020015f151581526020015f151581526020015f151581526020015f151581526020015f151581526020015f151581526020015f151581526020015f151581526020015f151581526020015f151581526020015f151581526020015f151581525090565b5f604051905090565b5f80fd5b5f80fd5b5f819050919050565b610fdb81610fc9565b8114610fe5575f80fd5b50565b5f81359050610ff681610fd2565b92915050565b5f6020828403121561101157611010610fc1565b5b5f61101e84828501610fe8565b91505092915050565b61103081610fc9565b82525050565b5f6020820190506110495f830184611027565b92915050565b5f73ffffffffffffffffffffffffffffffffffffffff82169050919050565b5f819050919050565b5f61109161108c6110878461104f565b61106e565b61104f565b9050919050565b5f6110a282611077565b9050919050565b5f6110b382611098565b9050919050565b6110c3816110a9565b82525050565b5f6020820190506110dc5f8301846110ba565b92915050565b5f80fd5b5f601f19601f8301169050919050565b7f4e487b71000000000000000000000000000000000000000000000000000000005f52604160045260245ffd5b61112c826110e6565b810181811067ffffffffffffffff8211171561114b5761114a6110f6565b5b80604052505050565b5f61115d610fb8565b90506111698282611123565b919050565b5f6111788261104f565b9050919050565b6111888161116e565b8114611192575f80fd5b50565b5f813590506111a38161117f565b92915050565b5f62ffffff82169050919050565b6111c0816111a9565b81146111ca575f80fd5b50565b5f813590506111db816111b7565b92915050565b5f8160020b9050919050565b6111f6816111e1565b8114611200575f80fd5b50565b5f81359050611211816111ed565b92915050565b5f6112218261116e565b9050919050565b61123181611217565b811461123b575f80fd5b50565b5f8135905061124c81611228565b92915050565b5f60a08284031215611267576112666110e2565b5b61127160a0611154565b90505f61128084828501611195565b5f83015250602061129384828501611195565b60208301525060406112a7848285016111cd565b60408301525060606112bb84828501611203565b60608301525060806112cf8482850161123e565b60808301525092915050565b6112e48161104f565b81146112ee575f80fd5b50565b5f813590506112ff816112db565b92915050565b61130e81610fc9565b8114611318575f80fd5b50565b5f8135905061132981611305565b92915050565b5f805f60e0848603121561134657611345610fc1565b5b5f61135386828701611252565b93505060a0611364868287016112f1565b92505060c06113758682870161131b565b9150509250925092565b611388816111e1565b82525050565b5f6020820190506113a15f83018461137f565b92915050565b6113b08161116e565b81146113ba575f80fd5b50565b5f813590506113cb816113a7565b92915050565b5f80fd5b5f60a082840312156113ea576113e96113d1565b5b81905092915050565b5f60808284031215611408576114076113d1565b5b81905092915050565b5f80fd5b5f80fd5b5f80fd5b5f8083601f84011261143257611431611411565b5b8235905067ffffffffffffffff81111561144f5761144e611415565b5b60208301915083600182028301111561146b5761146a611419565b5b9250929050565b5f805f805f610160868803121561148c5761148b610fc1565b5b5f611499888289016113bd565b95505060206114aa888289016113d5565b94505060c06114bb888289016113f3565b93505061014086013567ffffffffffffffff8111156114dd576114dc610fc5565b5b6114e98882890161141d565b92509250509295509295909350565b5f7fffffffff0000000000000000000000000000000000000000000000000000000082169050919050565b61152c816114f8565b82525050565b5f6020820190506115455f830184611523565b92915050565b5f606082840312156115605761155f6113d1565b5b81905092915050565b5f805f805f610140868803121561158357611582610fc1565b5b5f611590888289016113bd565b95505060206115a1888289016113d5565b94505060c06115b28882890161154b565b93505061012086013567ffffffffffffffff8111156115d4576115d3610fc5565b5b6115e08882890161141d565b92509250509295509295909350565b5f819050919050565b5f61161261160d611608846115ef565b61106e565b6115ef565b9050919050565b611622816115f8565b82525050565b611631816111a9565b82525050565b5f60608201905061164a5f830186611523565b6116576020830185611619565b6116646040830184611628565b949350505050565b611675816115ef565b811461167f575f80fd5b50565b5f813590506116908161166c565b92915050565b5f805f805f805f6101a0888a0312156116b2576116b1610fc1565b5b5f6116bf8a828b016113bd565b97505060206116d08a828b016113d5565b96505060c06116e18a828b016113f3565b9550506101406116f38a828b01611682565b9450506101606117058a828b01611682565b93505061018088013567ffffffffffffffff81111561172757611726610fc5565b5b6117338a828b0161141d565b925092505092959891949750929550565b61174d816115f8565b82525050565b5f6040820190506117665f830185611523565b6117736020830184611744565b9392505050565b5f805f80610100858703121561179357611792610fc1565b5b5f6117a0878288016113bd565b94505060206117b1878288016113d5565b93505060c06117c2878288016112f1565b92505060e06117d387828801611203565b91505092959194509250565b5f805f805f8061016087890312156117fa576117f9610fc1565b5b5f61180789828a016113bd565b965050602061181889828a016113d5565b95505060c061182989828a0161154b565b94505061012061183b89828a01611682565b93505061014087013567ffffffffffffffff81111561185d5761185c610fc5565b5b61186989828a0161141d565b92509250509295509295509295565b5f81600f0b9050919050565b61188d81611878565b82525050565b5f6040820190506118a65f830185611523565b6118b36020830184611884565b9392505050565b5f819050919050565b6118cc816118ba565b81146118d6575f80fd5b50565b5f813590506118e7816118c3565b92915050565b5f805f805f80610120878903121561190857611907610fc1565b5b5f61191589828a016113bd565b965050602061192689828a016113d5565b95505060c061193789828a016118d9565b94505060e061194889828a016118d9565b93505061010087013567ffffffffffffffff81111561196a57611969610fc5565b5b61197689828a0161141d565b92509250509295509295509295565b5f8115159050919050565b61199981611985565b82525050565b6101c082015f8201516119b45f850182611990565b5060208201516119c76020850182611990565b5060408201516119da6040850182611990565b5060608201516119ed6060850182611990565b506080820151611a006080850182611990565b5060a0820151611a1360a0850182611990565b5060c0820151611a2660c0850182611990565b5060e0820151611a3960e0850182611990565b50610100820151611a4e610100850182611990565b50610120820151611a63610120850182611990565b50610140820151611a78610140850182611990565b50610160820151611a8d610160850182611990565b50610180820151611aa2610180850182611990565b506101a0820151611ab76101a0850182611990565b50505050565b5f6101c082019050611ad15f83018461199f565b92915050565b5f611ae182611098565b9050919050565b611af181611ad7565b82525050565b5f602082019050611b0a5f830184611ae8565b92915050565b5f805f60e08486031215611b2757611b26610fc1565b5b5f611b34868287016113bd565b9350506020611b45868287016113d5565b92505060c0611b56868287016112f1565b9150509250925092565b5f611b6a82611098565b9050919050565b611b7a81611b60565b82525050565b611b89816111a9565b82525050565b611b98816111e1565b82525050565b5f611ba882611098565b9050919050565b611bb881611b9e565b82525050565b60a082015f820151611bd25f850182611b71565b506020820151611be56020850182611b71565b506040820151611bf86040850182611b80565b506060820151611c0b6060850182611b8f565b506080820151611c1e6080850182611baf565b50505050565b611c2d8161104f565b82525050565b5f60c082019050611c465f830185611bbe565b611c5360a0830184611c24565b9392505050565b5f81519050611c68816111ed565b92915050565b5f60208284031215611c8357611c82610fc1565b5b5f611c9084828501611c5a565b91505092915050565b5f611ca382610fc9565b9050919050565b611cb381611c99565b82525050565b5f604082019050611ccc5f830185611caa565b611cd96020830184611027565b9392505050565b5f60a08284031215611cf557611cf4610fc1565b5b5f611d0284828501611252565b91505092915050565b611d14816114f8565b8114611d1e575f80fd5b50565b5f81359050611d2f81611d0b565b92915050565b5f67ffffffffffffffff821115611d4f57611d4e6110f6565b5b602082029050919050565b5f611d6c611d6784611d35565b611154565b90508060208402830185811115611d8657611d85611419565b5b835b81811015611daf5780611d9b888261131b565b845260208401935050602081019050611d88565b5050509392505050565b5f82601f830112611dcd57611dcc611411565b5b6008611dda848285611d5a565b91505092915050565b60028110611def575f80fd5b50565b5f81359050611e0081611de3565b92915050565b5f6101408284031215611e1c57611e1b6110e2565b5b611e266060611154565b90505f611e3584828501611d21565b5f830152506020611e4884828501611db9565b602083015250610120611e5d84828501611df2565b60408301525092915050565b5f60a08284031215611e7e57611e7d6110e2565b5b611e8860a0611154565b90505f611e97848285016113bd565b5f830152506020611eaa84828501611d21565b6020830152506040611ebe848285016118d9565b6040830152506060611ed2848285016118d9565b6060830152506080611ee68482850161131b565b60808301525092915050565b5f6102208284031215611f0857611f076110e2565b5b611f126080611154565b90505f611f2184828501611e06565b5f83015250610140611f358482850161131b565b602083015250610160611f4a848285016118d9565b604083015250610180611f5f84828501611e69565b60608301525092915050565b5f6102208284031215611f8157611f80610fc1565b5b5f611f8e84828501611ef2565b91505092915050565b611fa0816114f8565b82525050565b5f60089050919050565b5f81905092915050565b5f819050919050565b611fcc81610fc9565b82525050565b5f611fdd8383611fc3565b60208301905092915050565b5f602082019050919050565b611ffe81611fa6565b6120088184611fb0565b925061201382611fba565b805f5b8381101561204357815161202a8782611fd2565b965061203583611fe9565b925050600181019050612016565b505050505050565b7f4e487b71000000000000000000000000000000000000000000000000000000005f52602160045260245ffd5b600281106120895761208861204b565b5b50565b5f81905061209982612078565b919050565b5f6120a88261208c565b9050919050565b6120b88161209e565b82525050565b61014082015f8201516120d35f850182611f97565b5060208201516120e66020850182611ff5565b5060408201516120fa6101208501826120af565b50505050565b612109816118ba565b82525050565b6121188161116e565b82525050565b60a082015f8201516121325f85018261210f565b5060208201516121456020850182611f97565b5060408201516121586040850182612100565b50606082015161216b6060850182612100565b50608082015161217e6080850182611fc3565b50505050565b61022082015f8201516121995f8501826120be565b5060208201516121ad610140850182611fc3565b5060408201516121c1610160850182612100565b5060608201516121d561018085018261211e565b50505050565b5f610240820190506121ef5f830185612184565b6121fd610220830184611027565b9392505050565b5f8151905061221281611305565b92915050565b61222181611985565b811461222b575f80fd5b50565b5f8151905061223c81612218565b92915050565b5f806040838503121561225857612257610fc1565b5b5f61226585828601612204565b92505060206122768582860161222e565b915050925092905056",
    "linkReferences": {}
  },
  "methodIdentifiers": {
    "EMAIL_VERIFIER()": "0db2caf0",
    "afterAddLiquidity(address,(address,address,uint24,int24,address),(int24,int24,int256,bytes32),int256,int256,bytes)": "9f063efc",
    "afterDonate(address,(address,address,uint24,int24,address),uint256,uint256,bytes)": "e1b4af69",
    "afterInitialize(address,(address,address,uint24,int24,address),uint160,int24)": "6fe7e6eb",
    "afterRemoveLiquidity(address,(address,address,uint24,int24,address),(int24,int24,int256,bytes32),int256,int256,bytes)": "6c2bbe7e",
    "afterSwap(address,(address,address,uint24,int24,address),(bool,int256,uint160),int256,bytes)": "b47b2fb1",
    "beforeAddLiquidity(address,(address,address,uint24,int24,address),(int24,int24,int256,bytes32),bytes)": "259982e5",
    "beforeDonate(address,(address,address,uint24,int24,address),uint256,uint256,bytes)": "b6a8b0fa",
    "beforeInitialize(address,(address,address,uint24,int24,address),uint160)": "dc98354e",
    "beforeRemoveLiquidity(address,(address,address,uint24,int24,address),(int24,int24,int256,bytes32),bytes)": "21d0ee70",
    "beforeSwap(address,(address,address,uint24,int24,address),(bool,int256,uint160),bytes)": "575e24b4",
    "getHookPermissions()": "c4e833ce",
    "initializeGatedPool((address,address,uint24,int24,address),uint160,bytes32)": "1ab641a2",
    "poolDomainHash(bytes32)": "0b721343",
    "poolManager()": "dc4c90d3"
  },
  "id": 132
}